{
	"contracts/BetCandidate.sol": {
		"BetCandidate": {
			"abi": [
				{
					"inputs": [],
					"stateMutability": "nonpayable",
					"type": "constructor"
				},
				{
					"inputs": [],
					"name": "dispute",
					"outputs": [
						{
							"internalType": "string",
							"name": "candidate1",
							"type": "string"
						},
						{
							"internalType": "string",
							"name": "candidate2",
							"type": "string"
						},
						{
							"internalType": "string",
							"name": "image1",
							"type": "string"
						},
						{
							"internalType": "string",
							"name": "image2",
							"type": "string"
						},
						{
							"internalType": "uint256",
							"name": "total1",
							"type": "uint256"
						},
						{
							"internalType": "uint256",
							"name": "total2",
							"type": "uint256"
						},
						{
							"internalType": "uint256",
							"name": "winner",
							"type": "uint256"
						}
					],
					"stateMutability": "view",
					"type": "function"
				}
			],
			"devdoc": {
				"kind": "dev",
				"methods": {},
				"version": 1
			},
			"evm": {
				"assembly": "    /* \"contracts/BetCandidate.sol\":212:1676  contract BetCandidate {... */\n  mstore(0x40, 0x80)\n    /* \"contracts/BetCandidate.sol\":300:302  10 */\n  0x0a\n    /* \"contracts/BetCandidate.sol\":289:302  uint fee = 10 */\n  0x08\n  sstore\n    /* \"contracts/BetCandidate.sol\":352:1673  constructor() {... */\n  callvalue\n  dup1\n  iszero\n  tag_1\n  jumpi\n  0x00\n  dup1\n  revert\ntag_1:\n  pop\n    /* \"contracts/BetCandidate.sol\":384:394  msg.sender */\n  caller\n    /* \"contracts/BetCandidate.sol\":376:381  owner */\n  0x07\n  0x00\n    /* \"contracts/BetCandidate.sol\":376:394  owner = msg.sender */\n  0x0100\n  exp\n  dup2\n  sload\n  dup2\n  0xffffffffffffffffffffffffffffffffffffffff\n  mul\n  not\n  and\n  swap1\n  dup4\n  0xffffffffffffffffffffffffffffffffffffffff\n  and\n  mul\n  or\n  swap1\n  sstore\n  pop\n    /* \"contracts/BetCandidate.sol\":414:1666  Dispute({... */\n  mload(0x40)\n  dup1\n  0xe0\n  add\n  0x40\n  mstore\n  dup1\n  mload(0x40)\n  dup1\n  0x40\n  add\n  0x40\n  mstore\n  dup1\n  0x0c\n  dup2\n  mstore\n  0x20\n  add\n  0x446f6e616c64205472756d700000000000000000000000000000000000000000\n  dup2\n  mstore\n  pop\n  dup2\n  mstore\n  0x20\n  add\n  mload(0x40)\n  dup1\n  0x40\n  add\n  0x40\n  mstore\n  dup1\n  0x0d\n  dup2\n  mstore\n  0x20\n  add\n  0x4b616d616c612048617272697300000000000000000000000000000000000000\n  dup2\n  mstore\n  pop\n  dup2\n  mstore\n  0x20\n  add\n  mload(0x40)\n  dup1\n  0x0260\n  add\n  0x40\n  mstore\n  dup1\n  0x023e\n  dup2\n  mstore\n  0x20\n  add\n  data_80044437873762bb495a3b47e5e982422e1e384e0cc9838c39b83cbc73859a5f\n  0x023e\n  swap2\n  codecopy\n  dup2\n  mstore\n  0x20\n  add\n  mload(0x40)\n  dup1\n  0x0200\n  add\n  0x40\n  mstore\n  dup1\n  0x01cd\n  dup2\n  mstore\n  0x20\n  add\n  data_a47d5bd6c537fdf099b5bbe2e74fa147e1950cc8d2334470cfa7cfdc14c1b2a6\n  0x01cd\n  swap2\n  codecopy\n  dup2\n  mstore\n  0x20\n  add\n    /* \"contracts/BetCandidate.sol\":1608:1609  0 */\n  0x00\n    /* \"contracts/BetCandidate.sol\":414:1666  Dispute({... */\n  dup2\n  mstore\n  0x20\n  add\n    /* \"contracts/BetCandidate.sol\":1631:1632  0 */\n  0x00\n    /* \"contracts/BetCandidate.sol\":414:1666  Dispute({... */\n  dup2\n  mstore\n  0x20\n  add\n    /* \"contracts/BetCandidate.sol\":1654:1655  0 */\n  0x00\n    /* \"contracts/BetCandidate.sol\":414:1666  Dispute({... */\n  dup2\n  mstore\n  pop\n    /* \"contracts/BetCandidate.sol\":404:411  dispute */\n  0x00\n    /* \"contracts/BetCandidate.sol\":404:1666  dispute = Dispute({... */\n  dup1\n  dup3\n  add\n  mload\n  dup2\n  0x00\n  add\n  swap1\n  dup2\n  tag_4\n  swap2\n  swap1\n  tag_5\n  jump\t// in\ntag_4:\n  pop\n  0x20\n  dup3\n  add\n  mload\n  dup2\n  0x01\n  add\n  swap1\n  dup2\n  tag_6\n  swap2\n  swap1\n  tag_5\n  jump\t// in\ntag_6:\n  pop\n  0x40\n  dup3\n  add\n  mload\n  dup2\n  0x02\n  add\n  swap1\n  dup2\n  tag_7\n  swap2\n  swap1\n  tag_5\n  jump\t// in\ntag_7:\n  pop\n  0x60\n  dup3\n  add\n  mload\n  dup2\n  0x03\n  add\n  swap1\n  dup2\n  tag_8\n  swap2\n  swap1\n  tag_5\n  jump\t// in\ntag_8:\n  pop\n  0x80\n  dup3\n  add\n  mload\n  dup2\n  0x04\n  add\n  sstore\n  0xa0\n  dup3\n  add\n  mload\n  dup2\n  0x05\n  add\n  sstore\n  0xc0\n  dup3\n  add\n  mload\n  dup2\n  0x06\n  add\n  sstore\n  swap1\n  pop\n  pop\n    /* \"contracts/BetCandidate.sol\":212:1676  contract BetCandidate {... */\n  jump(tag_9)\n    /* \"#utility.yul\":7:106   */\ntag_10:\n    /* \"#utility.yul\":59:65   */\n  0x00\n    /* \"#utility.yul\":93:98   */\n  dup2\n    /* \"#utility.yul\":87:99   */\n  mload\n    /* \"#utility.yul\":77:99   */\n  swap1\n  pop\n    /* \"#utility.yul\":7:106   */\n  swap2\n  swap1\n  pop\n  jump\t// out\n    /* \"#utility.yul\":112:292   */\ntag_11:\n    /* \"#utility.yul\":160:237   */\n  0x4e487b7100000000000000000000000000000000000000000000000000000000\n    /* \"#utility.yul\":157:158   */\n  0x00\n    /* \"#utility.yul\":150:238   */\n  mstore\n    /* \"#utility.yul\":257:261   */\n  0x41\n    /* \"#utility.yul\":254:255   */\n  0x04\n    /* \"#utility.yul\":247:262   */\n  mstore\n    /* \"#utility.yul\":281:285   */\n  0x24\n    /* \"#utility.yul\":278:279   */\n  0x00\n    /* \"#utility.yul\":271:286   */\n  revert\n    /* \"#utility.yul\":298:478   */\ntag_12:\n    /* \"#utility.yul\":346:423   */\n  0x4e487b7100000000000000000000000000000000000000000000000000000000\n    /* \"#utility.yul\":343:344   */\n  0x00\n    /* \"#utility.yul\":336:424   */\n  mstore\n    /* \"#utility.yul\":443:447   */\n  0x22\n    /* \"#utility.yul\":440:441   */\n  0x04\n    /* \"#utility.yul\":433:448   */\n  mstore\n    /* \"#utility.yul\":467:471   */\n  0x24\n    /* \"#utility.yul\":464:465   */\n  0x00\n    /* \"#utility.yul\":457:472   */\n  revert\n    /* \"#utility.yul\":484:804   */\ntag_13:\n    /* \"#utility.yul\":528:534   */\n  0x00\n    /* \"#utility.yul\":565:566   */\n  0x02\n    /* \"#utility.yul\":559:563   */\n  dup3\n    /* \"#utility.yul\":555:567   */\n  div\n    /* \"#utility.yul\":545:567   */\n  swap1\n  pop\n    /* \"#utility.yul\":612:613   */\n  0x01\n    /* \"#utility.yul\":606:610   */\n  dup3\n    /* \"#utility.yul\":602:614   */\n  and\n    /* \"#utility.yul\":633:651   */\n  dup1\n    /* \"#utility.yul\":623:704   */\n  tag_35\n  jumpi\n    /* \"#utility.yul\":689:693   */\n  0x7f\n    /* \"#utility.yul\":681:687   */\n  dup3\n    /* \"#utility.yul\":677:694   */\n  and\n    /* \"#utility.yul\":667:694   */\n  swap2\n  pop\n    /* \"#utility.yul\":623:704   */\ntag_35:\n    /* \"#utility.yul\":751:753   */\n  0x20\n    /* \"#utility.yul\":743:749   */\n  dup3\n    /* \"#utility.yul\":740:754   */\n  lt\n    /* \"#utility.yul\":720:738   */\n  dup2\n    /* \"#utility.yul\":717:755   */\n  sub\n    /* \"#utility.yul\":714:798   */\n  tag_36\n  jumpi\n    /* \"#utility.yul\":770:788   */\n  tag_37\n  tag_12\n  jump\t// in\ntag_37:\n    /* \"#utility.yul\":714:798   */\ntag_36:\n    /* \"#utility.yul\":535:804   */\n  pop\n    /* \"#utility.yul\":484:804   */\n  swap2\n  swap1\n  pop\n  jump\t// out\n    /* \"#utility.yul\":810:951   */\ntag_14:\n    /* \"#utility.yul\":859:863   */\n  0x00\n    /* \"#utility.yul\":882:885   */\n  dup2\n    /* \"#utility.yul\":874:885   */\n  swap1\n  pop\n    /* \"#utility.yul\":905:908   */\n  dup2\n    /* \"#utility.yul\":902:903   */\n  0x00\n    /* \"#utility.yul\":895:909   */\n  mstore\n    /* \"#utility.yul\":939:943   */\n  0x20\n    /* \"#utility.yul\":936:937   */\n  0x00\n    /* \"#utility.yul\":926:944   */\n  keccak256\n    /* \"#utility.yul\":918:944   */\n  swap1\n  pop\n    /* \"#utility.yul\":810:951   */\n  swap2\n  swap1\n  pop\n  jump\t// out\n    /* \"#utility.yul\":957:1050   */\ntag_15:\n    /* \"#utility.yul\":994:1000   */\n  0x00\n    /* \"#utility.yul\":1041:1043   */\n  0x20\n    /* \"#utility.yul\":1036:1038   */\n  0x1f\n    /* \"#utility.yul\":1029:1034   */\n  dup4\n    /* \"#utility.yul\":1025:1039   */\n  add\n    /* \"#utility.yul\":1021:1044   */\n  div\n    /* \"#utility.yul\":1011:1044   */\n  swap1\n  pop\n    /* \"#utility.yul\":957:1050   */\n  swap2\n  swap1\n  pop\n  jump\t// out\n    /* \"#utility.yul\":1056:1163   */\ntag_16:\n    /* \"#utility.yul\":1100:1108   */\n  0x00\n    /* \"#utility.yul\":1150:1155   */\n  dup3\n    /* \"#utility.yul\":1144:1148   */\n  dup3\n    /* \"#utility.yul\":1140:1156   */\n  shl\n    /* \"#utility.yul\":1119:1156   */\n  swap1\n  pop\n    /* \"#utility.yul\":1056:1163   */\n  swap3\n  swap2\n  pop\n  pop\n  jump\t// out\n    /* \"#utility.yul\":1169:1562   */\ntag_17:\n    /* \"#utility.yul\":1238:1244   */\n  0x00\n    /* \"#utility.yul\":1288:1289   */\n  0x08\n    /* \"#utility.yul\":1276:1286   */\n  dup4\n    /* \"#utility.yul\":1272:1290   */\n  mul\n    /* \"#utility.yul\":1311:1408   */\n  tag_42\n    /* \"#utility.yul\":1341:1407   */\n  0xffffffffffffffffffffffffffffffffffffffffffffffffffffffffffffffff\n    /* \"#utility.yul\":1330:1339   */\n  dup3\n    /* \"#utility.yul\":1311:1408   */\n  tag_16\n  jump\t// in\ntag_42:\n    /* \"#utility.yul\":1429:1468   */\n  tag_43\n    /* \"#utility.yul\":1459:1467   */\n  dup7\n    /* \"#utility.yul\":1448:1457   */\n  dup4\n    /* \"#utility.yul\":1429:1468   */\n  tag_16\n  jump\t// in\ntag_43:\n    /* \"#utility.yul\":1417:1468   */\n  swap6\n  pop\n    /* \"#utility.yul\":1501:1505   */\n  dup1\n    /* \"#utility.yul\":1497:1506   */\n  not\n    /* \"#utility.yul\":1490:1495   */\n  dup5\n    /* \"#utility.yul\":1486:1507   */\n  and\n    /* \"#utility.yul\":1477:1507   */\n  swap4\n  pop\n    /* \"#utility.yul\":1550:1554   */\n  dup1\n    /* \"#utility.yul\":1540:1548   */\n  dup7\n    /* \"#utility.yul\":1536:1555   */\n  and\n    /* \"#utility.yul\":1529:1534   */\n  dup5\n    /* \"#utility.yul\":1526:1556   */\n  or\n    /* \"#utility.yul\":1516:1556   */\n  swap3\n  pop\n    /* \"#utility.yul\":1245:1562   */\n  pop\n  pop\n    /* \"#utility.yul\":1169:1562   */\n  swap4\n  swap3\n  pop\n  pop\n  pop\n  jump\t// out\n    /* \"#utility.yul\":1568:1645   */\ntag_18:\n    /* \"#utility.yul\":1605:1612   */\n  0x00\n    /* \"#utility.yul\":1634:1639   */\n  dup2\n    /* \"#utility.yul\":1623:1639   */\n  swap1\n  pop\n    /* \"#utility.yul\":1568:1645   */\n  swap2\n  swap1\n  pop\n  jump\t// out\n    /* \"#utility.yul\":1651:1711   */\ntag_19:\n    /* \"#utility.yul\":1679:1682   */\n  0x00\n    /* \"#utility.yul\":1700:1705   */\n  dup2\n    /* \"#utility.yul\":1693:1705   */\n  swap1\n  pop\n    /* \"#utility.yul\":1651:1711   */\n  swap2\n  swap1\n  pop\n  jump\t// out\n    /* \"#utility.yul\":1717:1859   */\ntag_20:\n    /* \"#utility.yul\":1767:1776   */\n  0x00\n    /* \"#utility.yul\":1800:1853   */\n  tag_47\n    /* \"#utility.yul\":1818:1852   */\n  tag_48\n    /* \"#utility.yul\":1827:1851   */\n  tag_49\n    /* \"#utility.yul\":1845:1850   */\n  dup5\n    /* \"#utility.yul\":1827:1851   */\n  tag_18\n  jump\t// in\ntag_49:\n    /* \"#utility.yul\":1818:1852   */\n  tag_19\n  jump\t// in\ntag_48:\n    /* \"#utility.yul\":1800:1853   */\n  tag_18\n  jump\t// in\ntag_47:\n    /* \"#utility.yul\":1787:1853   */\n  swap1\n  pop\n    /* \"#utility.yul\":1717:1859   */\n  swap2\n  swap1\n  pop\n  jump\t// out\n    /* \"#utility.yul\":1865:1940   */\ntag_21:\n    /* \"#utility.yul\":1908:1911   */\n  0x00\n    /* \"#utility.yul\":1929:1934   */\n  dup2\n    /* \"#utility.yul\":1922:1934   */\n  swap1\n  pop\n    /* \"#utility.yul\":1865:1940   */\n  swap2\n  swap1\n  pop\n  jump\t// out\n    /* \"#utility.yul\":1946:2215   */\ntag_22:\n    /* \"#utility.yul\":2056:2095   */\n  tag_52\n    /* \"#utility.yul\":2087:2094   */\n  dup4\n    /* \"#utility.yul\":2056:2095   */\n  tag_20\n  jump\t// in\ntag_52:\n    /* \"#utility.yul\":2117:2208   */\n  tag_53\n    /* \"#utility.yul\":2166:2207   */\n  tag_54\n    /* \"#utility.yul\":2190:2206   */\n  dup3\n    /* \"#utility.yul\":2166:2207   */\n  tag_21\n  jump\t// in\ntag_54:\n    /* \"#utility.yul\":2158:2164   */\n  dup5\n    /* \"#utility.yul\":2151:2155   */\n  dup5\n    /* \"#utility.yul\":2145:2156   */\n  sload\n    /* \"#utility.yul\":2117:2208   */\n  tag_17\n  jump\t// in\ntag_53:\n    /* \"#utility.yul\":2111:2115   */\n  dup3\n    /* \"#utility.yul\":2104:2209   */\n  sstore\n    /* \"#utility.yul\":2022:2215   */\n  pop\n    /* \"#utility.yul\":1946:2215   */\n  pop\n  pop\n  pop\n  jump\t// out\n    /* \"#utility.yul\":2221:2294   */\ntag_23:\n    /* \"#utility.yul\":2266:2269   */\n  0x00\n    /* \"#utility.yul\":2221:2294   */\n  swap1\n  jump\t// out\n    /* \"#utility.yul\":2300:2489   */\ntag_24:\n    /* \"#utility.yul\":2377:2409   */\n  tag_57\n  tag_23\n  jump\t// in\ntag_57:\n    /* \"#utility.yul\":2418:2483   */\n  tag_58\n    /* \"#utility.yul\":2476:2482   */\n  dup2\n    /* \"#utility.yul\":2468:2474   */\n  dup5\n    /* \"#utility.yul\":2462:2466   */\n  dup5\n    /* \"#utility.yul\":2418:2483   */\n  tag_22\n  jump\t// in\ntag_58:\n    /* \"#utility.yul\":2353:2489   */\n  pop\n    /* \"#utility.yul\":2300:2489   */\n  pop\n  pop\n  jump\t// out\n    /* \"#utility.yul\":2495:2681   */\ntag_25:\n    /* \"#utility.yul\":2555:2675   */\ntag_60:\n    /* \"#utility.yul\":2572:2575   */\n  dup2\n    /* \"#utility.yul\":2565:2570   */\n  dup2\n    /* \"#utility.yul\":2562:2576   */\n  lt\n    /* \"#utility.yul\":2555:2675   */\n  iszero\n  tag_62\n  jumpi\n    /* \"#utility.yul\":2626:2665   */\n  tag_63\n    /* \"#utility.yul\":2663:2664   */\n  0x00\n    /* \"#utility.yul\":2656:2661   */\n  dup3\n    /* \"#utility.yul\":2626:2665   */\n  tag_24\n  jump\t// in\ntag_63:\n    /* \"#utility.yul\":2599:2600   */\n  0x01\n    /* \"#utility.yul\":2592:2597   */\n  dup2\n    /* \"#utility.yul\":2588:2601   */\n  add\n    /* \"#utility.yul\":2579:2601   */\n  swap1\n  pop\n    /* \"#utility.yul\":2555:2675   */\n  jump(tag_60)\ntag_62:\n    /* \"#utility.yul\":2495:2681   */\n  pop\n  pop\n  jump\t// out\n    /* \"#utility.yul\":2687:3230   */\ntag_26:\n    /* \"#utility.yul\":2788:2790   */\n  0x1f\n    /* \"#utility.yul\":2783:2786   */\n  dup3\n    /* \"#utility.yul\":2780:2791   */\n  gt\n    /* \"#utility.yul\":2777:3223   */\n  iszero\n  tag_65\n  jumpi\n    /* \"#utility.yul\":2822:2860   */\n  tag_66\n    /* \"#utility.yul\":2854:2859   */\n  dup2\n    /* \"#utility.yul\":2822:2860   */\n  tag_14\n  jump\t// in\ntag_66:\n    /* \"#utility.yul\":2906:2935   */\n  tag_67\n    /* \"#utility.yul\":2924:2934   */\n  dup5\n    /* \"#utility.yul\":2906:2935   */\n  tag_15\n  jump\t// in\ntag_67:\n    /* \"#utility.yul\":2896:2904   */\n  dup2\n    /* \"#utility.yul\":2892:2936   */\n  add\n    /* \"#utility.yul\":3089:3091   */\n  0x20\n    /* \"#utility.yul\":3077:3087   */\n  dup6\n    /* \"#utility.yul\":3074:3092   */\n  lt\n    /* \"#utility.yul\":3071:3120   */\n  iszero\n  tag_68\n  jumpi\n    /* \"#utility.yul\":3110:3118   */\n  dup2\n    /* \"#utility.yul\":3095:3118   */\n  swap1\n  pop\n    /* \"#utility.yul\":3071:3120   */\ntag_68:\n    /* \"#utility.yul\":3133:3213   */\n  tag_69\n    /* \"#utility.yul\":3189:3211   */\n  tag_70\n    /* \"#utility.yul\":3207:3210   */\n  dup6\n    /* \"#utility.yul\":3189:3211   */\n  tag_15\n  jump\t// in\ntag_70:\n    /* \"#utility.yul\":3179:3187   */\n  dup4\n    /* \"#utility.yul\":3175:3212   */\n  add\n    /* \"#utility.yul\":3162:3173   */\n  dup3\n    /* \"#utility.yul\":3133:3213   */\n  tag_25\n  jump\t// in\ntag_69:\n    /* \"#utility.yul\":2792:3223   */\n  pop\n  pop\n    /* \"#utility.yul\":2777:3223   */\ntag_65:\n    /* \"#utility.yul\":2687:3230   */\n  pop\n  pop\n  pop\n  jump\t// out\n    /* \"#utility.yul\":3236:3353   */\ntag_27:\n    /* \"#utility.yul\":3290:3298   */\n  0x00\n    /* \"#utility.yul\":3340:3345   */\n  dup3\n    /* \"#utility.yul\":3334:3338   */\n  dup3\n    /* \"#utility.yul\":3330:3346   */\n  shr\n    /* \"#utility.yul\":3309:3346   */\n  swap1\n  pop\n    /* \"#utility.yul\":3236:3353   */\n  swap3\n  swap2\n  pop\n  pop\n  jump\t// out\n    /* \"#utility.yul\":3359:3528   */\ntag_28:\n    /* \"#utility.yul\":3403:3409   */\n  0x00\n    /* \"#utility.yul\":3436:3487   */\n  tag_73\n    /* \"#utility.yul\":3484:3485   */\n  0x00\n    /* \"#utility.yul\":3480:3486   */\n  not\n    /* \"#utility.yul\":3472:3477   */\n  dup5\n    /* \"#utility.yul\":3469:3470   */\n  0x08\n    /* \"#utility.yul\":3465:3478   */\n  mul\n    /* \"#utility.yul\":3436:3487   */\n  tag_27\n  jump\t// in\ntag_73:\n    /* \"#utility.yul\":3432:3488   */\n  not\n    /* \"#utility.yul\":3517:3521   */\n  dup1\n    /* \"#utility.yul\":3511:3515   */\n  dup4\n    /* \"#utility.yul\":3507:3522   */\n  and\n    /* \"#utility.yul\":3497:3522   */\n  swap2\n  pop\n    /* \"#utility.yul\":3410:3528   */\n  pop\n    /* \"#utility.yul\":3359:3528   */\n  swap3\n  swap2\n  pop\n  pop\n  jump\t// out\n    /* \"#utility.yul\":3533:3828   */\ntag_29:\n    /* \"#utility.yul\":3609:3613   */\n  0x00\n    /* \"#utility.yul\":3755:3784   */\n  tag_75\n    /* \"#utility.yul\":3780:3783   */\n  dup4\n    /* \"#utility.yul\":3774:3778   */\n  dup4\n    /* \"#utility.yul\":3755:3784   */\n  tag_28\n  jump\t// in\ntag_75:\n    /* \"#utility.yul\":3747:3784   */\n  swap2\n  pop\n    /* \"#utility.yul\":3817:3820   */\n  dup3\n    /* \"#utility.yul\":3814:3815   */\n  0x02\n    /* \"#utility.yul\":3810:3821   */\n  mul\n    /* \"#utility.yul\":3804:3808   */\n  dup3\n    /* \"#utility.yul\":3801:3822   */\n  or\n    /* \"#utility.yul\":3793:3822   */\n  swap1\n  pop\n    /* \"#utility.yul\":3533:3828   */\n  swap3\n  swap2\n  pop\n  pop\n  jump\t// out\n    /* \"#utility.yul\":3833:5228   */\ntag_5:\n    /* \"#utility.yul\":3950:3987   */\n  tag_77\n    /* \"#utility.yul\":3983:3986   */\n  dup3\n    /* \"#utility.yul\":3950:3987   */\n  tag_10\n  jump\t// in\ntag_77:\n    /* \"#utility.yul\":4052:4070   */\n  0xffffffffffffffff\n    /* \"#utility.yul\":4044:4050   */\n  dup2\n    /* \"#utility.yul\":4041:4071   */\n  gt\n    /* \"#utility.yul\":4038:4094   */\n  iszero\n  tag_78\n  jumpi\n    /* \"#utility.yul\":4074:4092   */\n  tag_79\n  tag_11\n  jump\t// in\ntag_79:\n    /* \"#utility.yul\":4038:4094   */\ntag_78:\n    /* \"#utility.yul\":4118:4156   */\n  tag_80\n    /* \"#utility.yul\":4150:4154   */\n  dup3\n    /* \"#utility.yul\":4144:4155   */\n  sload\n    /* \"#utility.yul\":4118:4156   */\n  tag_13\n  jump\t// in\ntag_80:\n    /* \"#utility.yul\":4203:4270   */\n  tag_81\n    /* \"#utility.yul\":4263:4269   */\n  dup3\n    /* \"#utility.yul\":4255:4261   */\n  dup3\n    /* \"#utility.yul\":4249:4253   */\n  dup6\n    /* \"#utility.yul\":4203:4270   */\n  tag_26\n  jump\t// in\ntag_81:\n    /* \"#utility.yul\":4297:4298   */\n  0x00\n    /* \"#utility.yul\":4321:4325   */\n  0x20\n    /* \"#utility.yul\":4308:4325   */\n  swap1\n  pop\n    /* \"#utility.yul\":4353:4355   */\n  0x1f\n    /* \"#utility.yul\":4345:4351   */\n  dup4\n    /* \"#utility.yul\":4342:4356   */\n  gt\n    /* \"#utility.yul\":4370:4371   */\n  0x01\n    /* \"#utility.yul\":4365:4983   */\n  dup2\n  eq\n  tag_83\n  jumpi\n    /* \"#utility.yul\":5027:5028   */\n  0x00\n    /* \"#utility.yul\":5044:5050   */\n  dup5\n    /* \"#utility.yul\":5041:5118   */\n  iszero\n  tag_84\n  jumpi\n    /* \"#utility.yul\":5093:5102   */\n  dup3\n    /* \"#utility.yul\":5088:5091   */\n  dup8\n    /* \"#utility.yul\":5084:5103   */\n  add\n    /* \"#utility.yul\":5078:5104   */\n  mload\n    /* \"#utility.yul\":5069:5104   */\n  swap1\n  pop\n    /* \"#utility.yul\":5041:5118   */\ntag_84:\n    /* \"#utility.yul\":5144:5211   */\n  tag_85\n    /* \"#utility.yul\":5204:5210   */\n  dup6\n    /* \"#utility.yul\":5197:5202   */\n  dup3\n    /* \"#utility.yul\":5144:5211   */\n  tag_29\n  jump\t// in\ntag_85:\n    /* \"#utility.yul\":5138:5142   */\n  dup7\n    /* \"#utility.yul\":5131:5212   */\n  sstore\n    /* \"#utility.yul\":5000:5222   */\n  pop\n    /* \"#utility.yul\":4335:5222   */\n  jump(tag_82)\n    /* \"#utility.yul\":4365:4983   */\ntag_83:\n    /* \"#utility.yul\":4417:4421   */\n  0x1f\n    /* \"#utility.yul\":4413:4422   */\n  not\n    /* \"#utility.yul\":4405:4411   */\n  dup5\n    /* \"#utility.yul\":4401:4423   */\n  and\n    /* \"#utility.yul\":4451:4488   */\n  tag_86\n    /* \"#utility.yul\":4483:4487   */\n  dup7\n    /* \"#utility.yul\":4451:4488   */\n  tag_14\n  jump\t// in\ntag_86:\n    /* \"#utility.yul\":4510:4511   */\n  0x00\n    /* \"#utility.yul\":4524:4732   */\ntag_87:\n    /* \"#utility.yul\":4538:4545   */\n  dup3\n    /* \"#utility.yul\":4535:4536   */\n  dup2\n    /* \"#utility.yul\":4532:4546   */\n  lt\n    /* \"#utility.yul\":4524:4732   */\n  iszero\n  tag_89\n  jumpi\n    /* \"#utility.yul\":4617:4626   */\n  dup5\n    /* \"#utility.yul\":4612:4615   */\n  dup10\n    /* \"#utility.yul\":4608:4627   */\n  add\n    /* \"#utility.yul\":4602:4628   */\n  mload\n    /* \"#utility.yul\":4594:4600   */\n  dup3\n    /* \"#utility.yul\":4587:4629   */\n  sstore\n    /* \"#utility.yul\":4668:4669   */\n  0x01\n    /* \"#utility.yul\":4660:4666   */\n  dup3\n    /* \"#utility.yul\":4656:4670   */\n  add\n    /* \"#utility.yul\":4646:4670   */\n  swap2\n  pop\n    /* \"#utility.yul\":4715:4717   */\n  0x20\n    /* \"#utility.yul\":4704:4713   */\n  dup6\n    /* \"#utility.yul\":4700:4718   */\n  add\n    /* \"#utility.yul\":4687:4718   */\n  swap5\n  pop\n    /* \"#utility.yul\":4561:4565   */\n  0x20\n    /* \"#utility.yul\":4558:4559   */\n  dup2\n    /* \"#utility.yul\":4554:4566   */\n  add\n    /* \"#utility.yul\":4549:4566   */\n  swap1\n  pop\n    /* \"#utility.yul\":4524:4732   */\n  jump(tag_87)\ntag_89:\n    /* \"#utility.yul\":4760:4766   */\n  dup7\n    /* \"#utility.yul\":4751:4758   */\n  dup4\n    /* \"#utility.yul\":4748:4767   */\n  lt\n    /* \"#utility.yul\":4745:4924   */\n  iszero\n  tag_90\n  jumpi\n    /* \"#utility.yul\":4818:4827   */\n  dup5\n    /* \"#utility.yul\":4813:4816   */\n  dup10\n    /* \"#utility.yul\":4809:4828   */\n  add\n    /* \"#utility.yul\":4803:4829   */\n  mload\n    /* \"#utility.yul\":4861:4909   */\n  tag_91\n    /* \"#utility.yul\":4903:4907   */\n  0x1f\n    /* \"#utility.yul\":4895:4901   */\n  dup10\n    /* \"#utility.yul\":4891:4908   */\n  and\n    /* \"#utility.yul\":4880:4889   */\n  dup3\n    /* \"#utility.yul\":4861:4909   */\n  tag_28\n  jump\t// in\ntag_91:\n    /* \"#utility.yul\":4853:4859   */\n  dup4\n    /* \"#utility.yul\":4846:4910   */\n  sstore\n    /* \"#utility.yul\":4768:4924   */\n  pop\n    /* \"#utility.yul\":4745:4924   */\ntag_90:\n    /* \"#utility.yul\":4970:4971   */\n  0x01\n    /* \"#utility.yul\":4966:4967   */\n  0x02\n    /* \"#utility.yul\":4958:4964   */\n  dup9\n    /* \"#utility.yul\":4954:4968   */\n  mul\n    /* \"#utility.yul\":4950:4972   */\n  add\n    /* \"#utility.yul\":4944:4948   */\n  dup9\n    /* \"#utility.yul\":4937:4973   */\n  sstore\n    /* \"#utility.yul\":4372:4983   */\n  pop\n  pop\n  pop\n    /* \"#utility.yul\":4335:5222   */\ntag_82:\n  pop\n    /* \"#utility.yul\":3925:5228   */\n  pop\n  pop\n  pop\n    /* \"#utility.yul\":3833:5228   */\n  pop\n  pop\n  jump\t// out\n    /* \"contracts/BetCandidate.sol\":212:1676  contract BetCandidate {... */\ntag_9:\n  dataSize(sub_0)\n  dup1\n  dataOffset(sub_0)\n  0x00\n  codecopy\n  0x00\n  return\nstop\ndata_80044437873762bb495a3b47e5e982422e1e384e0cc9838c39b83cbc73859a5f 68747470733a2f2f7777772e676f6f676c652e636f6d2f696d677265733f713d7472756d7026696d6775726c3d68747470732533412532462532467777772e636e6e62726173696c2e636f6d2e627225324677702d636f6e74656e7425324675706c6f61647325324673697465732532463132253246526575746572735f4469726563745f4d656469612532464272617a696c4f6e6c696e655265706f7274576f726c644e657773253246746167726575746572732e636f6d3230323462696e6172795f4c594e584d50454b384f304a532d46494c4544494d4147452e6a7067253346772533443432302532366825334432343025323663726f70253344312532367175616c697479253344383526696d6772656675726c3d68747470732533412532462532467777772e636e6e62726173696c2e636f6d2e6272253246696e7465726e6163696f6e616c2532467472756d702d66616c612d656d2d6578706c6f6469722d6f2d6972612d656d2d6361736f2d64652d616d656163612d612d63616e64696461746f2d707265736964656e6369616c25324626646f6369643d444d5f30466b7178616e725a454d2674626e69643d30473176704d4a746d525f6c754d267665743d31326168554b45776a3533364b373665324941785877714a5543485747314b3955514d336f454347555141412e2e6926773d34323026683d323430266863623d32266974673d31267665643d326168554b45776a3533364b373665324941785877714a5543485747314b3955514d336f45434755514141\ndata_a47d5bd6c537fdf099b5bbe2e74fa147e1950cc8d2334470cfa7cfdc14c1b2a6 68747470733a2f2f7777772e676f6f676c652e636f6d2f696d677265733f713d6b616d616c6126696d6775726c3d6874747073253341253246253246662e692e756f6c2e636f6d2e6272253246666f746f677261666961253246323032342532463039253246333025324631373237373238393432363666623064326533636464305f313732373732383934325f3378325f6d642e6a706726696d6772656675726c3d6874747073253341253246253246777777312e666f6c68612e756f6c2e636f6d2e62722532466d756e646f2532463230323425324630392532466e65772d796f726b2d74696d65732d6465636c6172612d766f746f2d656d2d6b616d616c612d6861727269732d706172612d707265736964656e74652d646f732d6575612e7368746d6c26646f6369643d4f733837757158734d6a5358724d2674626e69643d4c325431345956384236785a564d267665743d31326168554b45776a6a704a584b36653249417856507235554348665a644f4445514d336f4543424d5141412e2e6926773d37363826683d353132266863623d32266974673d31267665643d326168554b45776a6a704a584b36653249417856507235554348665a644f4445514d336f4543424d514141\n\nsub_0: assembly {\n        /* \"contracts/BetCandidate.sol\":212:1676  contract BetCandidate {... */\n      mstore(0x40, 0x80)\n      callvalue\n      dup1\n      iszero\n      tag_1\n      jumpi\n      0x00\n      dup1\n      revert\n    tag_1:\n      pop\n      jumpi(tag_2, lt(calldatasize, 0x04))\n      shr(0xe0, calldataload(0x00))\n      dup1\n      0xf240f7c3\n      eq\n      tag_3\n      jumpi\n    tag_2:\n      0x00\n      dup1\n      revert\n        /* \"contracts/BetCandidate.sol\":241:263  Dispute public dispute */\n    tag_3:\n      tag_4\n      tag_5\n      jump\t// in\n    tag_4:\n      mload(0x40)\n      tag_6\n      swap8\n      swap7\n      swap6\n      swap5\n      swap4\n      swap3\n      swap2\n      swap1\n      tag_7\n      jump\t// in\n    tag_6:\n      mload(0x40)\n      dup1\n      swap2\n      sub\n      swap1\n      return\n    tag_5:\n      0x00\n      dup1\n      0x00\n      add\n      dup1\n      sload\n      tag_8\n      swap1\n      tag_9\n      jump\t// in\n    tag_8:\n      dup1\n      0x1f\n      add\n      0x20\n      dup1\n      swap2\n      div\n      mul\n      0x20\n      add\n      mload(0x40)\n      swap1\n      dup2\n      add\n      0x40\n      mstore\n      dup1\n      swap3\n      swap2\n      swap1\n      dup2\n      dup2\n      mstore\n      0x20\n      add\n      dup3\n      dup1\n      sload\n      tag_10\n      swap1\n      tag_9\n      jump\t// in\n    tag_10:\n      dup1\n      iszero\n      tag_11\n      jumpi\n      dup1\n      0x1f\n      lt\n      tag_12\n      jumpi\n      0x0100\n      dup1\n      dup4\n      sload\n      div\n      mul\n      dup4\n      mstore\n      swap2\n      0x20\n      add\n      swap2\n      jump(tag_11)\n    tag_12:\n      dup3\n      add\n      swap2\n      swap1\n      0x00\n      mstore\n      keccak256(0x00, 0x20)\n      swap1\n    tag_13:\n      dup2\n      sload\n      dup2\n      mstore\n      swap1\n      0x01\n      add\n      swap1\n      0x20\n      add\n      dup1\n      dup4\n      gt\n      tag_13\n      jumpi\n      dup3\n      swap1\n      sub\n      0x1f\n      and\n      dup3\n      add\n      swap2\n    tag_11:\n      pop\n      pop\n      pop\n      pop\n      pop\n      swap1\n      dup1\n      0x01\n      add\n      dup1\n      sload\n      tag_14\n      swap1\n      tag_9\n      jump\t// in\n    tag_14:\n      dup1\n      0x1f\n      add\n      0x20\n      dup1\n      swap2\n      div\n      mul\n      0x20\n      add\n      mload(0x40)\n      swap1\n      dup2\n      add\n      0x40\n      mstore\n      dup1\n      swap3\n      swap2\n      swap1\n      dup2\n      dup2\n      mstore\n      0x20\n      add\n      dup3\n      dup1\n      sload\n      tag_15\n      swap1\n      tag_9\n      jump\t// in\n    tag_15:\n      dup1\n      iszero\n      tag_16\n      jumpi\n      dup1\n      0x1f\n      lt\n      tag_17\n      jumpi\n      0x0100\n      dup1\n      dup4\n      sload\n      div\n      mul\n      dup4\n      mstore\n      swap2\n      0x20\n      add\n      swap2\n      jump(tag_16)\n    tag_17:\n      dup3\n      add\n      swap2\n      swap1\n      0x00\n      mstore\n      keccak256(0x00, 0x20)\n      swap1\n    tag_18:\n      dup2\n      sload\n      dup2\n      mstore\n      swap1\n      0x01\n      add\n      swap1\n      0x20\n      add\n      dup1\n      dup4\n      gt\n      tag_18\n      jumpi\n      dup3\n      swap1\n      sub\n      0x1f\n      and\n      dup3\n      add\n      swap2\n    tag_16:\n      pop\n      pop\n      pop\n      pop\n      pop\n      swap1\n      dup1\n      0x02\n      add\n      dup1\n      sload\n      tag_19\n      swap1\n      tag_9\n      jump\t// in\n    tag_19:\n      dup1\n      0x1f\n      add\n      0x20\n      dup1\n      swap2\n      div\n      mul\n      0x20\n      add\n      mload(0x40)\n      swap1\n      dup2\n      add\n      0x40\n      mstore\n      dup1\n      swap3\n      swap2\n      swap1\n      dup2\n      dup2\n      mstore\n      0x20\n      add\n      dup3\n      dup1\n      sload\n      tag_20\n      swap1\n      tag_9\n      jump\t// in\n    tag_20:\n      dup1\n      iszero\n      tag_21\n      jumpi\n      dup1\n      0x1f\n      lt\n      tag_22\n      jumpi\n      0x0100\n      dup1\n      dup4\n      sload\n      div\n      mul\n      dup4\n      mstore\n      swap2\n      0x20\n      add\n      swap2\n      jump(tag_21)\n    tag_22:\n      dup3\n      add\n      swap2\n      swap1\n      0x00\n      mstore\n      keccak256(0x00, 0x20)\n      swap1\n    tag_23:\n      dup2\n      sload\n      dup2\n      mstore\n      swap1\n      0x01\n      add\n      swap1\n      0x20\n      add\n      dup1\n      dup4\n      gt\n      tag_23\n      jumpi\n      dup3\n      swap1\n      sub\n      0x1f\n      and\n      dup3\n      add\n      swap2\n    tag_21:\n      pop\n      pop\n      pop\n      pop\n      pop\n      swap1\n      dup1\n      0x03\n      add\n      dup1\n      sload\n      tag_24\n      swap1\n      tag_9\n      jump\t// in\n    tag_24:\n      dup1\n      0x1f\n      add\n      0x20\n      dup1\n      swap2\n      div\n      mul\n      0x20\n      add\n      mload(0x40)\n      swap1\n      dup2\n      add\n      0x40\n      mstore\n      dup1\n      swap3\n      swap2\n      swap1\n      dup2\n      dup2\n      mstore\n      0x20\n      add\n      dup3\n      dup1\n      sload\n      tag_25\n      swap1\n      tag_9\n      jump\t// in\n    tag_25:\n      dup1\n      iszero\n      tag_26\n      jumpi\n      dup1\n      0x1f\n      lt\n      tag_27\n      jumpi\n      0x0100\n      dup1\n      dup4\n      sload\n      div\n      mul\n      dup4\n      mstore\n      swap2\n      0x20\n      add\n      swap2\n      jump(tag_26)\n    tag_27:\n      dup3\n      add\n      swap2\n      swap1\n      0x00\n      mstore\n      keccak256(0x00, 0x20)\n      swap1\n    tag_28:\n      dup2\n      sload\n      dup2\n      mstore\n      swap1\n      0x01\n      add\n      swap1\n      0x20\n      add\n      dup1\n      dup4\n      gt\n      tag_28\n      jumpi\n      dup3\n      swap1\n      sub\n      0x1f\n      and\n      dup3\n      add\n      swap2\n    tag_26:\n      pop\n      pop\n      pop\n      pop\n      pop\n      swap1\n      dup1\n      0x04\n      add\n      sload\n      swap1\n      dup1\n      0x05\n      add\n      sload\n      swap1\n      dup1\n      0x06\n      add\n      sload\n      swap1\n      pop\n      dup8\n      jump\t// out\n        /* \"#utility.yul\":7:106   */\n    tag_29:\n        /* \"#utility.yul\":59:65   */\n      0x00\n        /* \"#utility.yul\":93:98   */\n      dup2\n        /* \"#utility.yul\":87:99   */\n      mload\n        /* \"#utility.yul\":77:99   */\n      swap1\n      pop\n        /* \"#utility.yul\":7:106   */\n      swap2\n      swap1\n      pop\n      jump\t// out\n        /* \"#utility.yul\":112:281   */\n    tag_30:\n        /* \"#utility.yul\":196:207   */\n      0x00\n        /* \"#utility.yul\":230:236   */\n      dup3\n        /* \"#utility.yul\":225:228   */\n      dup3\n        /* \"#utility.yul\":218:237   */\n      mstore\n        /* \"#utility.yul\":270:274   */\n      0x20\n        /* \"#utility.yul\":265:268   */\n      dup3\n        /* \"#utility.yul\":261:275   */\n      add\n        /* \"#utility.yul\":246:275   */\n      swap1\n      pop\n        /* \"#utility.yul\":112:281   */\n      swap3\n      swap2\n      pop\n      pop\n      jump\t// out\n        /* \"#utility.yul\":287:426   */\n    tag_31:\n        /* \"#utility.yul\":376:382   */\n      dup3\n        /* \"#utility.yul\":371:374   */\n      dup2\n        /* \"#utility.yul\":366:369   */\n      dup4\n        /* \"#utility.yul\":360:383   */\n      mcopy\n        /* \"#utility.yul\":417:418   */\n      0x00\n        /* \"#utility.yul\":408:414   */\n      dup4\n        /* \"#utility.yul\":403:406   */\n      dup4\n        /* \"#utility.yul\":399:415   */\n      add\n        /* \"#utility.yul\":392:419   */\n      mstore\n        /* \"#utility.yul\":287:426   */\n      pop\n      pop\n      pop\n      jump\t// out\n        /* \"#utility.yul\":432:534   */\n    tag_32:\n        /* \"#utility.yul\":473:479   */\n      0x00\n        /* \"#utility.yul\":524:526   */\n      0x1f\n        /* \"#utility.yul\":520:527   */\n      not\n        /* \"#utility.yul\":515:517   */\n      0x1f\n        /* \"#utility.yul\":508:513   */\n      dup4\n        /* \"#utility.yul\":504:518   */\n      add\n        /* \"#utility.yul\":500:528   */\n      and\n        /* \"#utility.yul\":490:528   */\n      swap1\n      pop\n        /* \"#utility.yul\":432:534   */\n      swap2\n      swap1\n      pop\n      jump\t// out\n        /* \"#utility.yul\":540:917   */\n    tag_33:\n        /* \"#utility.yul\":628:631   */\n      0x00\n        /* \"#utility.yul\":656:695   */\n      tag_43\n        /* \"#utility.yul\":689:694   */\n      dup3\n        /* \"#utility.yul\":656:695   */\n      tag_29\n      jump\t// in\n    tag_43:\n        /* \"#utility.yul\":711:782   */\n      tag_44\n        /* \"#utility.yul\":775:781   */\n      dup2\n        /* \"#utility.yul\":770:773   */\n      dup6\n        /* \"#utility.yul\":711:782   */\n      tag_30\n      jump\t// in\n    tag_44:\n        /* \"#utility.yul\":704:782   */\n      swap4\n      pop\n        /* \"#utility.yul\":791:856   */\n      tag_45\n        /* \"#utility.yul\":849:855   */\n      dup2\n        /* \"#utility.yul\":844:847   */\n      dup6\n        /* \"#utility.yul\":837:841   */\n      0x20\n        /* \"#utility.yul\":830:835   */\n      dup7\n        /* \"#utility.yul\":826:842   */\n      add\n        /* \"#utility.yul\":791:856   */\n      tag_31\n      jump\t// in\n    tag_45:\n        /* \"#utility.yul\":881:910   */\n      tag_46\n        /* \"#utility.yul\":903:909   */\n      dup2\n        /* \"#utility.yul\":881:910   */\n      tag_32\n      jump\t// in\n    tag_46:\n        /* \"#utility.yul\":876:879   */\n      dup5\n        /* \"#utility.yul\":872:911   */\n      add\n        /* \"#utility.yul\":865:911   */\n      swap2\n      pop\n        /* \"#utility.yul\":632:917   */\n      pop\n        /* \"#utility.yul\":540:917   */\n      swap3\n      swap2\n      pop\n      pop\n      jump\t// out\n        /* \"#utility.yul\":923:1000   */\n    tag_34:\n        /* \"#utility.yul\":960:967   */\n      0x00\n        /* \"#utility.yul\":989:994   */\n      dup2\n        /* \"#utility.yul\":978:994   */\n      swap1\n      pop\n        /* \"#utility.yul\":923:1000   */\n      swap2\n      swap1\n      pop\n      jump\t// out\n        /* \"#utility.yul\":1006:1124   */\n    tag_35:\n        /* \"#utility.yul\":1093:1117   */\n      tag_49\n        /* \"#utility.yul\":1111:1116   */\n      dup2\n        /* \"#utility.yul\":1093:1117   */\n      tag_34\n      jump\t// in\n    tag_49:\n        /* \"#utility.yul\":1088:1091   */\n      dup3\n        /* \"#utility.yul\":1081:1118   */\n      mstore\n        /* \"#utility.yul\":1006:1124   */\n      pop\n      pop\n      jump\t// out\n        /* \"#utility.yul\":1130:2380   */\n    tag_7:\n        /* \"#utility.yul\":1471:1475   */\n      0x00\n        /* \"#utility.yul\":1509:1512   */\n      0xe0\n        /* \"#utility.yul\":1498:1507   */\n      dup3\n        /* \"#utility.yul\":1494:1513   */\n      add\n        /* \"#utility.yul\":1486:1513   */\n      swap1\n      pop\n        /* \"#utility.yul\":1559:1568   */\n      dup2\n        /* \"#utility.yul\":1553:1557   */\n      dup2\n        /* \"#utility.yul\":1549:1569   */\n      sub\n        /* \"#utility.yul\":1545:1546   */\n      0x00\n        /* \"#utility.yul\":1534:1543   */\n      dup4\n        /* \"#utility.yul\":1530:1547   */\n      add\n        /* \"#utility.yul\":1523:1570   */\n      mstore\n        /* \"#utility.yul\":1587:1665   */\n      tag_51\n        /* \"#utility.yul\":1660:1664   */\n      dup2\n        /* \"#utility.yul\":1651:1657   */\n      dup11\n        /* \"#utility.yul\":1587:1665   */\n      tag_33\n      jump\t// in\n    tag_51:\n        /* \"#utility.yul\":1579:1665   */\n      swap1\n      pop\n        /* \"#utility.yul\":1712:1721   */\n      dup2\n        /* \"#utility.yul\":1706:1710   */\n      dup2\n        /* \"#utility.yul\":1702:1722   */\n      sub\n        /* \"#utility.yul\":1697:1699   */\n      0x20\n        /* \"#utility.yul\":1686:1695   */\n      dup4\n        /* \"#utility.yul\":1682:1700   */\n      add\n        /* \"#utility.yul\":1675:1723   */\n      mstore\n        /* \"#utility.yul\":1740:1818   */\n      tag_52\n        /* \"#utility.yul\":1813:1817   */\n      dup2\n        /* \"#utility.yul\":1804:1810   */\n      dup10\n        /* \"#utility.yul\":1740:1818   */\n      tag_33\n      jump\t// in\n    tag_52:\n        /* \"#utility.yul\":1732:1818   */\n      swap1\n      pop\n        /* \"#utility.yul\":1865:1874   */\n      dup2\n        /* \"#utility.yul\":1859:1863   */\n      dup2\n        /* \"#utility.yul\":1855:1875   */\n      sub\n        /* \"#utility.yul\":1850:1852   */\n      0x40\n        /* \"#utility.yul\":1839:1848   */\n      dup4\n        /* \"#utility.yul\":1835:1853   */\n      add\n        /* \"#utility.yul\":1828:1876   */\n      mstore\n        /* \"#utility.yul\":1893:1971   */\n      tag_53\n        /* \"#utility.yul\":1966:1970   */\n      dup2\n        /* \"#utility.yul\":1957:1963   */\n      dup9\n        /* \"#utility.yul\":1893:1971   */\n      tag_33\n      jump\t// in\n    tag_53:\n        /* \"#utility.yul\":1885:1971   */\n      swap1\n      pop\n        /* \"#utility.yul\":2018:2027   */\n      dup2\n        /* \"#utility.yul\":2012:2016   */\n      dup2\n        /* \"#utility.yul\":2008:2028   */\n      sub\n        /* \"#utility.yul\":2003:2005   */\n      0x60\n        /* \"#utility.yul\":1992:2001   */\n      dup4\n        /* \"#utility.yul\":1988:2006   */\n      add\n        /* \"#utility.yul\":1981:2029   */\n      mstore\n        /* \"#utility.yul\":2046:2124   */\n      tag_54\n        /* \"#utility.yul\":2119:2123   */\n      dup2\n        /* \"#utility.yul\":2110:2116   */\n      dup8\n        /* \"#utility.yul\":2046:2124   */\n      tag_33\n      jump\t// in\n    tag_54:\n        /* \"#utility.yul\":2038:2124   */\n      swap1\n      pop\n        /* \"#utility.yul\":2134:2207   */\n      tag_55\n        /* \"#utility.yul\":2202:2205   */\n      0x80\n        /* \"#utility.yul\":2191:2200   */\n      dup4\n        /* \"#utility.yul\":2187:2206   */\n      add\n        /* \"#utility.yul\":2178:2184   */\n      dup7\n        /* \"#utility.yul\":2134:2207   */\n      tag_35\n      jump\t// in\n    tag_55:\n        /* \"#utility.yul\":2217:2290   */\n      tag_56\n        /* \"#utility.yul\":2285:2288   */\n      0xa0\n        /* \"#utility.yul\":2274:2283   */\n      dup4\n        /* \"#utility.yul\":2270:2289   */\n      add\n        /* \"#utility.yul\":2261:2267   */\n      dup6\n        /* \"#utility.yul\":2217:2290   */\n      tag_35\n      jump\t// in\n    tag_56:\n        /* \"#utility.yul\":2300:2373   */\n      tag_57\n        /* \"#utility.yul\":2368:2371   */\n      0xc0\n        /* \"#utility.yul\":2357:2366   */\n      dup4\n        /* \"#utility.yul\":2353:2372   */\n      add\n        /* \"#utility.yul\":2344:2350   */\n      dup5\n        /* \"#utility.yul\":2300:2373   */\n      tag_35\n      jump\t// in\n    tag_57:\n        /* \"#utility.yul\":1130:2380   */\n      swap9\n      swap8\n      pop\n      pop\n      pop\n      pop\n      pop\n      pop\n      pop\n      pop\n      jump\t// out\n        /* \"#utility.yul\":2386:2566   */\n    tag_36:\n        /* \"#utility.yul\":2434:2511   */\n      0x4e487b7100000000000000000000000000000000000000000000000000000000\n        /* \"#utility.yul\":2431:2432   */\n      0x00\n        /* \"#utility.yul\":2424:2512   */\n      mstore\n        /* \"#utility.yul\":2531:2535   */\n      0x22\n        /* \"#utility.yul\":2528:2529   */\n      0x04\n        /* \"#utility.yul\":2521:2536   */\n      mstore\n        /* \"#utility.yul\":2555:2559   */\n      0x24\n        /* \"#utility.yul\":2552:2553   */\n      0x00\n        /* \"#utility.yul\":2545:2560   */\n      revert\n        /* \"#utility.yul\":2572:2892   */\n    tag_9:\n        /* \"#utility.yul\":2616:2622   */\n      0x00\n        /* \"#utility.yul\":2653:2654   */\n      0x02\n        /* \"#utility.yul\":2647:2651   */\n      dup3\n        /* \"#utility.yul\":2643:2655   */\n      div\n        /* \"#utility.yul\":2633:2655   */\n      swap1\n      pop\n        /* \"#utility.yul\":2700:2701   */\n      0x01\n        /* \"#utility.yul\":2694:2698   */\n      dup3\n        /* \"#utility.yul\":2690:2702   */\n      and\n        /* \"#utility.yul\":2721:2739   */\n      dup1\n        /* \"#utility.yul\":2711:2792   */\n      tag_60\n      jumpi\n        /* \"#utility.yul\":2777:2781   */\n      0x7f\n        /* \"#utility.yul\":2769:2775   */\n      dup3\n        /* \"#utility.yul\":2765:2782   */\n      and\n        /* \"#utility.yul\":2755:2782   */\n      swap2\n      pop\n        /* \"#utility.yul\":2711:2792   */\n    tag_60:\n        /* \"#utility.yul\":2839:2841   */\n      0x20\n        /* \"#utility.yul\":2831:2837   */\n      dup3\n        /* \"#utility.yul\":2828:2842   */\n      lt\n        /* \"#utility.yul\":2808:2826   */\n      dup2\n        /* \"#utility.yul\":2805:2843   */\n      sub\n        /* \"#utility.yul\":2802:2886   */\n      tag_61\n      jumpi\n        /* \"#utility.yul\":2858:2876   */\n      tag_62\n      tag_36\n      jump\t// in\n    tag_62:\n        /* \"#utility.yul\":2802:2886   */\n    tag_61:\n        /* \"#utility.yul\":2623:2892   */\n      pop\n        /* \"#utility.yul\":2572:2892   */\n      swap2\n      swap1\n      pop\n      jump\t// out\n\n    auxdata: 0xa264697066735822122035d44e597d5e6b5c41bac8376d9b730150bd9ff25504a8c5b1cd57438a327fb264736f6c634300081a0033\n}\n",
				"bytecode": {
					"linkReferences": {},
					"object": "6080604052600a600855348015610014575f80fd5b503360075f6101000a81548173ffffffffffffffffffffffffffffffffffffffff021916908373ffffffffffffffffffffffffffffffffffffffff1602179055506040518060e001604052806040518060400160405280600c81526020017f446f6e616c64205472756d70000000000000000000000000000000000000000081525081526020016040518060400160405280600d81526020017f4b616d616c612048617272697300000000000000000000000000000000000000815250815260200160405180610260016040528061023e81526020016108f661023e913981526020016040518061020001604052806101cd8152602001610b346101cd913981526020015f81526020015f81526020015f8152505f80820151815f01908161013c91906103df565b50602082015181600101908161015291906103df565b50604082015181600201908161016891906103df565b50606082015181600301908161017e91906103df565b506080820151816004015560a0820151816005015560c082015181600601559050506104ae565b5f81519050919050565b7f4e487b71000000000000000000000000000000000000000000000000000000005f52604160045260245ffd5b7f4e487b71000000000000000000000000000000000000000000000000000000005f52602260045260245ffd5b5f600282049050600182168061022057607f821691505b602082108103610233576102326101dc565b5b50919050565b5f819050815f5260205f209050919050565b5f6020601f8301049050919050565b5f82821b905092915050565b5f600883026102957fffffffffffffffffffffffffffffffffffffffffffffffffffffffffffffffff8261025a565b61029f868361025a565b95508019841693508086168417925050509392505050565b5f819050919050565b5f819050919050565b5f6102e36102de6102d9846102b7565b6102c0565b6102b7565b9050919050565b5f819050919050565b6102fc836102c9565b610310610308826102ea565b848454610266565b825550505050565b5f90565b610324610318565b61032f8184846102f3565b505050565b5b81811015610352576103475f8261031c565b600181019050610335565b5050565b601f8211156103975761036881610239565b6103718461024b565b81016020851015610380578190505b61039461038c8561024b565b830182610334565b50505b505050565b5f82821c905092915050565b5f6103b75f198460080261039c565b1980831691505092915050565b5f6103cf83836103a8565b9150826002028217905092915050565b6103e8826101a5565b67ffffffffffffffff811115610401576104006101af565b5b61040b8254610209565b610416828285610356565b5f60209050601f831160018114610447575f8415610435578287015190505b61043f85826103c4565b8655506104a6565b601f19841661045586610239565b5f5b8281101561047c57848901518255600182019150602085019450602081019050610457565b868310156104995784890151610495601f8916826103a8565b8355505b6001600288020188555050505b505050505050565b61043b806104bb5f395ff3fe608060405234801561000f575f80fd5b5060043610610029575f3560e01c8063f240f7c31461002d575b5f80fd5b610035610051565b604051610048979695949392919061031f565b60405180910390f35b5f805f018054610060906103d5565b80601f016020809104026020016040519081016040528092919081815260200182805461008c906103d5565b80156100d75780601f106100ae576101008083540402835291602001916100d7565b820191905f5260205f20905b8154815290600101906020018083116100ba57829003601f168201915b5050505050908060010180546100ec906103d5565b80601f0160208091040260200160405190810160405280929190818152602001828054610118906103d5565b80156101635780601f1061013a57610100808354040283529160200191610163565b820191905f5260205f20905b81548152906001019060200180831161014657829003601f168201915b505050505090806002018054610178906103d5565b80601f01602080910402602001604051908101604052809291908181526020018280546101a4906103d5565b80156101ef5780601f106101c6576101008083540402835291602001916101ef565b820191905f5260205f20905b8154815290600101906020018083116101d257829003601f168201915b505050505090806003018054610204906103d5565b80601f0160208091040260200160405190810160405280929190818152602001828054610230906103d5565b801561027b5780601f106102525761010080835404028352916020019161027b565b820191905f5260205f20905b81548152906001019060200180831161025e57829003601f168201915b5050505050908060040154908060050154908060060154905087565b5f81519050919050565b5f82825260208201905092915050565b8281835e5f83830152505050565b5f601f19601f8301169050919050565b5f6102d982610297565b6102e381856102a1565b93506102f38185602086016102b1565b6102fc816102bf565b840191505092915050565b5f819050919050565b61031981610307565b82525050565b5f60e0820190508181035f830152610337818a6102cf565b9050818103602083015261034b81896102cf565b9050818103604083015261035f81886102cf565b9050818103606083015261037381876102cf565b90506103826080830186610310565b61038f60a0830185610310565b61039c60c0830184610310565b98975050505050505050565b7f4e487b71000000000000000000000000000000000000000000000000000000005f52602260045260245ffd5b5f60028204905060018216806103ec57607f821691505b6020821081036103ff576103fe6103a8565b5b5091905056fea264697066735822122035d44e597d5e6b5c41bac8376d9b730150bd9ff25504a8c5b1cd57438a327fb264736f6c634300081a003368747470733a2f2f7777772e676f6f676c652e636f6d2f696d677265733f713d7472756d7026696d6775726c3d68747470732533412532462532467777772e636e6e62726173696c2e636f6d2e627225324677702d636f6e74656e7425324675706c6f61647325324673697465732532463132253246526575746572735f4469726563745f4d656469612532464272617a696c4f6e6c696e655265706f7274576f726c644e657773253246746167726575746572732e636f6d3230323462696e6172795f4c594e584d50454b384f304a532d46494c4544494d4147452e6a7067253346772533443432302532366825334432343025323663726f70253344312532367175616c697479253344383526696d6772656675726c3d68747470732533412532462532467777772e636e6e62726173696c2e636f6d2e6272253246696e7465726e6163696f6e616c2532467472756d702d66616c612d656d2d6578706c6f6469722d6f2d6972612d656d2d6361736f2d64652d616d656163612d612d63616e64696461746f2d707265736964656e6369616c25324626646f6369643d444d5f30466b7178616e725a454d2674626e69643d30473176704d4a746d525f6c754d267665743d31326168554b45776a3533364b373665324941785877714a5543485747314b3955514d336f454347555141412e2e6926773d34323026683d323430266863623d32266974673d31267665643d326168554b45776a3533364b373665324941785877714a5543485747314b3955514d336f4543475551414168747470733a2f2f7777772e676f6f676c652e636f6d2f696d677265733f713d6b616d616c6126696d6775726c3d6874747073253341253246253246662e692e756f6c2e636f6d2e6272253246666f746f677261666961253246323032342532463039253246333025324631373237373238393432363666623064326533636464305f313732373732383934325f3378325f6d642e6a706726696d6772656675726c3d6874747073253341253246253246777777312e666f6c68612e756f6c2e636f6d2e62722532466d756e646f2532463230323425324630392532466e65772d796f726b2d74696d65732d6465636c6172612d766f746f2d656d2d6b616d616c612d6861727269732d706172612d707265736964656e74652d646f732d6575612e7368746d6c26646f6369643d4f733837757158734d6a5358724d2674626e69643d4c325431345956384236785a564d267665743d31326168554b45776a6a704a584b36653249417856507235554348665a644f4445514d336f4543424d5141412e2e6926773d37363826683d353132266863623d32266974673d31267665643d326168554b45776a6a704a584b36653249417856507235554348665a644f4445514d336f4543424d514141",
					"opcodes": "PUSH1 0x80 PUSH1 0x40 MSTORE PUSH1 0xA PUSH1 0x8 SSTORE CALLVALUE DUP1 ISZERO PUSH2 0x14 JUMPI PUSH0 DUP1 REVERT JUMPDEST POP CALLER PUSH1 0x7 PUSH0 PUSH2 0x100 EXP DUP2 SLOAD DUP2 PUSH20 0xFFFFFFFFFFFFFFFFFFFFFFFFFFFFFFFFFFFFFFFF MUL NOT AND SWAP1 DUP4 PUSH20 0xFFFFFFFFFFFFFFFFFFFFFFFFFFFFFFFFFFFFFFFF AND MUL OR SWAP1 SSTORE POP PUSH1 0x40 MLOAD DUP1 PUSH1 0xE0 ADD PUSH1 0x40 MSTORE DUP1 PUSH1 0x40 MLOAD DUP1 PUSH1 0x40 ADD PUSH1 0x40 MSTORE DUP1 PUSH1 0xC DUP2 MSTORE PUSH1 0x20 ADD PUSH32 0x446F6E616C64205472756D700000000000000000000000000000000000000000 DUP2 MSTORE POP DUP2 MSTORE PUSH1 0x20 ADD PUSH1 0x40 MLOAD DUP1 PUSH1 0x40 ADD PUSH1 0x40 MSTORE DUP1 PUSH1 0xD DUP2 MSTORE PUSH1 0x20 ADD PUSH32 0x4B616D616C612048617272697300000000000000000000000000000000000000 DUP2 MSTORE POP DUP2 MSTORE PUSH1 0x20 ADD PUSH1 0x40 MLOAD DUP1 PUSH2 0x260 ADD PUSH1 0x40 MSTORE DUP1 PUSH2 0x23E DUP2 MSTORE PUSH1 0x20 ADD PUSH2 0x8F6 PUSH2 0x23E SWAP2 CODECOPY DUP2 MSTORE PUSH1 0x20 ADD PUSH1 0x40 MLOAD DUP1 PUSH2 0x200 ADD PUSH1 0x40 MSTORE DUP1 PUSH2 0x1CD DUP2 MSTORE PUSH1 0x20 ADD PUSH2 0xB34 PUSH2 0x1CD SWAP2 CODECOPY DUP2 MSTORE PUSH1 0x20 ADD PUSH0 DUP2 MSTORE PUSH1 0x20 ADD PUSH0 DUP2 MSTORE PUSH1 0x20 ADD PUSH0 DUP2 MSTORE POP PUSH0 DUP1 DUP3 ADD MLOAD DUP2 PUSH0 ADD SWAP1 DUP2 PUSH2 0x13C SWAP2 SWAP1 PUSH2 0x3DF JUMP JUMPDEST POP PUSH1 0x20 DUP3 ADD MLOAD DUP2 PUSH1 0x1 ADD SWAP1 DUP2 PUSH2 0x152 SWAP2 SWAP1 PUSH2 0x3DF JUMP JUMPDEST POP PUSH1 0x40 DUP3 ADD MLOAD DUP2 PUSH1 0x2 ADD SWAP1 DUP2 PUSH2 0x168 SWAP2 SWAP1 PUSH2 0x3DF JUMP JUMPDEST POP PUSH1 0x60 DUP3 ADD MLOAD DUP2 PUSH1 0x3 ADD SWAP1 DUP2 PUSH2 0x17E SWAP2 SWAP1 PUSH2 0x3DF JUMP JUMPDEST POP PUSH1 0x80 DUP3 ADD MLOAD DUP2 PUSH1 0x4 ADD SSTORE PUSH1 0xA0 DUP3 ADD MLOAD DUP2 PUSH1 0x5 ADD SSTORE PUSH1 0xC0 DUP3 ADD MLOAD DUP2 PUSH1 0x6 ADD SSTORE SWAP1 POP POP PUSH2 0x4AE JUMP JUMPDEST PUSH0 DUP2 MLOAD SWAP1 POP SWAP2 SWAP1 POP JUMP JUMPDEST PUSH32 0x4E487B7100000000000000000000000000000000000000000000000000000000 PUSH0 MSTORE PUSH1 0x41 PUSH1 0x4 MSTORE PUSH1 0x24 PUSH0 REVERT JUMPDEST PUSH32 0x4E487B7100000000000000000000000000000000000000000000000000000000 PUSH0 MSTORE PUSH1 0x22 PUSH1 0x4 MSTORE PUSH1 0x24 PUSH0 REVERT JUMPDEST PUSH0 PUSH1 0x2 DUP3 DIV SWAP1 POP PUSH1 0x1 DUP3 AND DUP1 PUSH2 0x220 JUMPI PUSH1 0x7F DUP3 AND SWAP2 POP JUMPDEST PUSH1 0x20 DUP3 LT DUP2 SUB PUSH2 0x233 JUMPI PUSH2 0x232 PUSH2 0x1DC JUMP JUMPDEST JUMPDEST POP SWAP2 SWAP1 POP JUMP JUMPDEST PUSH0 DUP2 SWAP1 POP DUP2 PUSH0 MSTORE PUSH1 0x20 PUSH0 KECCAK256 SWAP1 POP SWAP2 SWAP1 POP JUMP JUMPDEST PUSH0 PUSH1 0x20 PUSH1 0x1F DUP4 ADD DIV SWAP1 POP SWAP2 SWAP1 POP JUMP JUMPDEST PUSH0 DUP3 DUP3 SHL SWAP1 POP SWAP3 SWAP2 POP POP JUMP JUMPDEST PUSH0 PUSH1 0x8 DUP4 MUL PUSH2 0x295 PUSH32 0xFFFFFFFFFFFFFFFFFFFFFFFFFFFFFFFFFFFFFFFFFFFFFFFFFFFFFFFFFFFFFFFF DUP3 PUSH2 0x25A JUMP JUMPDEST PUSH2 0x29F DUP7 DUP4 PUSH2 0x25A JUMP JUMPDEST SWAP6 POP DUP1 NOT DUP5 AND SWAP4 POP DUP1 DUP7 AND DUP5 OR SWAP3 POP POP POP SWAP4 SWAP3 POP POP POP JUMP JUMPDEST PUSH0 DUP2 SWAP1 POP SWAP2 SWAP1 POP JUMP JUMPDEST PUSH0 DUP2 SWAP1 POP SWAP2 SWAP1 POP JUMP JUMPDEST PUSH0 PUSH2 0x2E3 PUSH2 0x2DE PUSH2 0x2D9 DUP5 PUSH2 0x2B7 JUMP JUMPDEST PUSH2 0x2C0 JUMP JUMPDEST PUSH2 0x2B7 JUMP JUMPDEST SWAP1 POP SWAP2 SWAP1 POP JUMP JUMPDEST PUSH0 DUP2 SWAP1 POP SWAP2 SWAP1 POP JUMP JUMPDEST PUSH2 0x2FC DUP4 PUSH2 0x2C9 JUMP JUMPDEST PUSH2 0x310 PUSH2 0x308 DUP3 PUSH2 0x2EA JUMP JUMPDEST DUP5 DUP5 SLOAD PUSH2 0x266 JUMP JUMPDEST DUP3 SSTORE POP POP POP POP JUMP JUMPDEST PUSH0 SWAP1 JUMP JUMPDEST PUSH2 0x324 PUSH2 0x318 JUMP JUMPDEST PUSH2 0x32F DUP2 DUP5 DUP5 PUSH2 0x2F3 JUMP JUMPDEST POP POP POP JUMP JUMPDEST JUMPDEST DUP2 DUP2 LT ISZERO PUSH2 0x352 JUMPI PUSH2 0x347 PUSH0 DUP3 PUSH2 0x31C JUMP JUMPDEST PUSH1 0x1 DUP2 ADD SWAP1 POP PUSH2 0x335 JUMP JUMPDEST POP POP JUMP JUMPDEST PUSH1 0x1F DUP3 GT ISZERO PUSH2 0x397 JUMPI PUSH2 0x368 DUP2 PUSH2 0x239 JUMP JUMPDEST PUSH2 0x371 DUP5 PUSH2 0x24B JUMP JUMPDEST DUP2 ADD PUSH1 0x20 DUP6 LT ISZERO PUSH2 0x380 JUMPI DUP2 SWAP1 POP JUMPDEST PUSH2 0x394 PUSH2 0x38C DUP6 PUSH2 0x24B JUMP JUMPDEST DUP4 ADD DUP3 PUSH2 0x334 JUMP JUMPDEST POP POP JUMPDEST POP POP POP JUMP JUMPDEST PUSH0 DUP3 DUP3 SHR SWAP1 POP SWAP3 SWAP2 POP POP JUMP JUMPDEST PUSH0 PUSH2 0x3B7 PUSH0 NOT DUP5 PUSH1 0x8 MUL PUSH2 0x39C JUMP JUMPDEST NOT DUP1 DUP4 AND SWAP2 POP POP SWAP3 SWAP2 POP POP JUMP JUMPDEST PUSH0 PUSH2 0x3CF DUP4 DUP4 PUSH2 0x3A8 JUMP JUMPDEST SWAP2 POP DUP3 PUSH1 0x2 MUL DUP3 OR SWAP1 POP SWAP3 SWAP2 POP POP JUMP JUMPDEST PUSH2 0x3E8 DUP3 PUSH2 0x1A5 JUMP JUMPDEST PUSH8 0xFFFFFFFFFFFFFFFF DUP2 GT ISZERO PUSH2 0x401 JUMPI PUSH2 0x400 PUSH2 0x1AF JUMP JUMPDEST JUMPDEST PUSH2 0x40B DUP3 SLOAD PUSH2 0x209 JUMP JUMPDEST PUSH2 0x416 DUP3 DUP3 DUP6 PUSH2 0x356 JUMP JUMPDEST PUSH0 PUSH1 0x20 SWAP1 POP PUSH1 0x1F DUP4 GT PUSH1 0x1 DUP2 EQ PUSH2 0x447 JUMPI PUSH0 DUP5 ISZERO PUSH2 0x435 JUMPI DUP3 DUP8 ADD MLOAD SWAP1 POP JUMPDEST PUSH2 0x43F DUP6 DUP3 PUSH2 0x3C4 JUMP JUMPDEST DUP7 SSTORE POP PUSH2 0x4A6 JUMP JUMPDEST PUSH1 0x1F NOT DUP5 AND PUSH2 0x455 DUP7 PUSH2 0x239 JUMP JUMPDEST PUSH0 JUMPDEST DUP3 DUP2 LT ISZERO PUSH2 0x47C JUMPI DUP5 DUP10 ADD MLOAD DUP3 SSTORE PUSH1 0x1 DUP3 ADD SWAP2 POP PUSH1 0x20 DUP6 ADD SWAP5 POP PUSH1 0x20 DUP2 ADD SWAP1 POP PUSH2 0x457 JUMP JUMPDEST DUP7 DUP4 LT ISZERO PUSH2 0x499 JUMPI DUP5 DUP10 ADD MLOAD PUSH2 0x495 PUSH1 0x1F DUP10 AND DUP3 PUSH2 0x3A8 JUMP JUMPDEST DUP4 SSTORE POP JUMPDEST PUSH1 0x1 PUSH1 0x2 DUP9 MUL ADD DUP9 SSTORE POP POP POP JUMPDEST POP POP POP POP POP POP JUMP JUMPDEST PUSH2 0x43B DUP1 PUSH2 0x4BB PUSH0 CODECOPY PUSH0 RETURN INVALID PUSH1 0x80 PUSH1 0x40 MSTORE CALLVALUE DUP1 ISZERO PUSH2 0xF JUMPI PUSH0 DUP1 REVERT JUMPDEST POP PUSH1 0x4 CALLDATASIZE LT PUSH2 0x29 JUMPI PUSH0 CALLDATALOAD PUSH1 0xE0 SHR DUP1 PUSH4 0xF240F7C3 EQ PUSH2 0x2D JUMPI JUMPDEST PUSH0 DUP1 REVERT JUMPDEST PUSH2 0x35 PUSH2 0x51 JUMP JUMPDEST PUSH1 0x40 MLOAD PUSH2 0x48 SWAP8 SWAP7 SWAP6 SWAP5 SWAP4 SWAP3 SWAP2 SWAP1 PUSH2 0x31F JUMP JUMPDEST PUSH1 0x40 MLOAD DUP1 SWAP2 SUB SWAP1 RETURN JUMPDEST PUSH0 DUP1 PUSH0 ADD DUP1 SLOAD PUSH2 0x60 SWAP1 PUSH2 0x3D5 JUMP JUMPDEST DUP1 PUSH1 0x1F ADD PUSH1 0x20 DUP1 SWAP2 DIV MUL PUSH1 0x20 ADD PUSH1 0x40 MLOAD SWAP1 DUP2 ADD PUSH1 0x40 MSTORE DUP1 SWAP3 SWAP2 SWAP1 DUP2 DUP2 MSTORE PUSH1 0x20 ADD DUP3 DUP1 SLOAD PUSH2 0x8C SWAP1 PUSH2 0x3D5 JUMP JUMPDEST DUP1 ISZERO PUSH2 0xD7 JUMPI DUP1 PUSH1 0x1F LT PUSH2 0xAE JUMPI PUSH2 0x100 DUP1 DUP4 SLOAD DIV MUL DUP4 MSTORE SWAP2 PUSH1 0x20 ADD SWAP2 PUSH2 0xD7 JUMP JUMPDEST DUP3 ADD SWAP2 SWAP1 PUSH0 MSTORE PUSH1 0x20 PUSH0 KECCAK256 SWAP1 JUMPDEST DUP2 SLOAD DUP2 MSTORE SWAP1 PUSH1 0x1 ADD SWAP1 PUSH1 0x20 ADD DUP1 DUP4 GT PUSH2 0xBA JUMPI DUP3 SWAP1 SUB PUSH1 0x1F AND DUP3 ADD SWAP2 JUMPDEST POP POP POP POP POP SWAP1 DUP1 PUSH1 0x1 ADD DUP1 SLOAD PUSH2 0xEC SWAP1 PUSH2 0x3D5 JUMP JUMPDEST DUP1 PUSH1 0x1F ADD PUSH1 0x20 DUP1 SWAP2 DIV MUL PUSH1 0x20 ADD PUSH1 0x40 MLOAD SWAP1 DUP2 ADD PUSH1 0x40 MSTORE DUP1 SWAP3 SWAP2 SWAP1 DUP2 DUP2 MSTORE PUSH1 0x20 ADD DUP3 DUP1 SLOAD PUSH2 0x118 SWAP1 PUSH2 0x3D5 JUMP JUMPDEST DUP1 ISZERO PUSH2 0x163 JUMPI DUP1 PUSH1 0x1F LT PUSH2 0x13A JUMPI PUSH2 0x100 DUP1 DUP4 SLOAD DIV MUL DUP4 MSTORE SWAP2 PUSH1 0x20 ADD SWAP2 PUSH2 0x163 JUMP JUMPDEST DUP3 ADD SWAP2 SWAP1 PUSH0 MSTORE PUSH1 0x20 PUSH0 KECCAK256 SWAP1 JUMPDEST DUP2 SLOAD DUP2 MSTORE SWAP1 PUSH1 0x1 ADD SWAP1 PUSH1 0x20 ADD DUP1 DUP4 GT PUSH2 0x146 JUMPI DUP3 SWAP1 SUB PUSH1 0x1F AND DUP3 ADD SWAP2 JUMPDEST POP POP POP POP POP SWAP1 DUP1 PUSH1 0x2 ADD DUP1 SLOAD PUSH2 0x178 SWAP1 PUSH2 0x3D5 JUMP JUMPDEST DUP1 PUSH1 0x1F ADD PUSH1 0x20 DUP1 SWAP2 DIV MUL PUSH1 0x20 ADD PUSH1 0x40 MLOAD SWAP1 DUP2 ADD PUSH1 0x40 MSTORE DUP1 SWAP3 SWAP2 SWAP1 DUP2 DUP2 MSTORE PUSH1 0x20 ADD DUP3 DUP1 SLOAD PUSH2 0x1A4 SWAP1 PUSH2 0x3D5 JUMP JUMPDEST DUP1 ISZERO PUSH2 0x1EF JUMPI DUP1 PUSH1 0x1F LT PUSH2 0x1C6 JUMPI PUSH2 0x100 DUP1 DUP4 SLOAD DIV MUL DUP4 MSTORE SWAP2 PUSH1 0x20 ADD SWAP2 PUSH2 0x1EF JUMP JUMPDEST DUP3 ADD SWAP2 SWAP1 PUSH0 MSTORE PUSH1 0x20 PUSH0 KECCAK256 SWAP1 JUMPDEST DUP2 SLOAD DUP2 MSTORE SWAP1 PUSH1 0x1 ADD SWAP1 PUSH1 0x20 ADD DUP1 DUP4 GT PUSH2 0x1D2 JUMPI DUP3 SWAP1 SUB PUSH1 0x1F AND DUP3 ADD SWAP2 JUMPDEST POP POP POP POP POP SWAP1 DUP1 PUSH1 0x3 ADD DUP1 SLOAD PUSH2 0x204 SWAP1 PUSH2 0x3D5 JUMP JUMPDEST DUP1 PUSH1 0x1F ADD PUSH1 0x20 DUP1 SWAP2 DIV MUL PUSH1 0x20 ADD PUSH1 0x40 MLOAD SWAP1 DUP2 ADD PUSH1 0x40 MSTORE DUP1 SWAP3 SWAP2 SWAP1 DUP2 DUP2 MSTORE PUSH1 0x20 ADD DUP3 DUP1 SLOAD PUSH2 0x230 SWAP1 PUSH2 0x3D5 JUMP JUMPDEST DUP1 ISZERO PUSH2 0x27B JUMPI DUP1 PUSH1 0x1F LT PUSH2 0x252 JUMPI PUSH2 0x100 DUP1 DUP4 SLOAD DIV MUL DUP4 MSTORE SWAP2 PUSH1 0x20 ADD SWAP2 PUSH2 0x27B JUMP JUMPDEST DUP3 ADD SWAP2 SWAP1 PUSH0 MSTORE PUSH1 0x20 PUSH0 KECCAK256 SWAP1 JUMPDEST DUP2 SLOAD DUP2 MSTORE SWAP1 PUSH1 0x1 ADD SWAP1 PUSH1 0x20 ADD DUP1 DUP4 GT PUSH2 0x25E JUMPI DUP3 SWAP1 SUB PUSH1 0x1F AND DUP3 ADD SWAP2 JUMPDEST POP POP POP POP POP SWAP1 DUP1 PUSH1 0x4 ADD SLOAD SWAP1 DUP1 PUSH1 0x5 ADD SLOAD SWAP1 DUP1 PUSH1 0x6 ADD SLOAD SWAP1 POP DUP8 JUMP JUMPDEST PUSH0 DUP2 MLOAD SWAP1 POP SWAP2 SWAP1 POP JUMP JUMPDEST PUSH0 DUP3 DUP3 MSTORE PUSH1 0x20 DUP3 ADD SWAP1 POP SWAP3 SWAP2 POP POP JUMP JUMPDEST DUP3 DUP2 DUP4 MCOPY PUSH0 DUP4 DUP4 ADD MSTORE POP POP POP JUMP JUMPDEST PUSH0 PUSH1 0x1F NOT PUSH1 0x1F DUP4 ADD AND SWAP1 POP SWAP2 SWAP1 POP JUMP JUMPDEST PUSH0 PUSH2 0x2D9 DUP3 PUSH2 0x297 JUMP JUMPDEST PUSH2 0x2E3 DUP2 DUP6 PUSH2 0x2A1 JUMP JUMPDEST SWAP4 POP PUSH2 0x2F3 DUP2 DUP6 PUSH1 0x20 DUP7 ADD PUSH2 0x2B1 JUMP JUMPDEST PUSH2 0x2FC DUP2 PUSH2 0x2BF JUMP JUMPDEST DUP5 ADD SWAP2 POP POP SWAP3 SWAP2 POP POP JUMP JUMPDEST PUSH0 DUP2 SWAP1 POP SWAP2 SWAP1 POP JUMP JUMPDEST PUSH2 0x319 DUP2 PUSH2 0x307 JUMP JUMPDEST DUP3 MSTORE POP POP JUMP JUMPDEST PUSH0 PUSH1 0xE0 DUP3 ADD SWAP1 POP DUP2 DUP2 SUB PUSH0 DUP4 ADD MSTORE PUSH2 0x337 DUP2 DUP11 PUSH2 0x2CF JUMP JUMPDEST SWAP1 POP DUP2 DUP2 SUB PUSH1 0x20 DUP4 ADD MSTORE PUSH2 0x34B DUP2 DUP10 PUSH2 0x2CF JUMP JUMPDEST SWAP1 POP DUP2 DUP2 SUB PUSH1 0x40 DUP4 ADD MSTORE PUSH2 0x35F DUP2 DUP9 PUSH2 0x2CF JUMP JUMPDEST SWAP1 POP DUP2 DUP2 SUB PUSH1 0x60 DUP4 ADD MSTORE PUSH2 0x373 DUP2 DUP8 PUSH2 0x2CF JUMP JUMPDEST SWAP1 POP PUSH2 0x382 PUSH1 0x80 DUP4 ADD DUP7 PUSH2 0x310 JUMP JUMPDEST PUSH2 0x38F PUSH1 0xA0 DUP4 ADD DUP6 PUSH2 0x310 JUMP JUMPDEST PUSH2 0x39C PUSH1 0xC0 DUP4 ADD DUP5 PUSH2 0x310 JUMP JUMPDEST SWAP9 SWAP8 POP POP POP POP POP POP POP POP JUMP JUMPDEST PUSH32 0x4E487B7100000000000000000000000000000000000000000000000000000000 PUSH0 MSTORE PUSH1 0x22 PUSH1 0x4 MSTORE PUSH1 0x24 PUSH0 REVERT JUMPDEST PUSH0 PUSH1 0x2 DUP3 DIV SWAP1 POP PUSH1 0x1 DUP3 AND DUP1 PUSH2 0x3EC JUMPI PUSH1 0x7F DUP3 AND SWAP2 POP JUMPDEST PUSH1 0x20 DUP3 LT DUP2 SUB PUSH2 0x3FF JUMPI PUSH2 0x3FE PUSH2 0x3A8 JUMP JUMPDEST JUMPDEST POP SWAP2 SWAP1 POP JUMP INVALID LOG2 PUSH5 0x6970667358 0x22 SLT KECCAK256 CALLDATALOAD 0xD4 0x4E MSIZE PUSH30 0x5E6B5C41BAC8376D9B730150BD9FF25504A8C5B1CD57438A327FB264736F PUSH13 0x634300081A003368747470733A 0x2F 0x2F PUSH24 0x77772E676F6F676C652E636F6D2F696D677265733F713D74 PUSH19 0x756D7026696D6775726C3D6874747073253341 0x25 ORIGIN CHAINID 0x25 ORIGIN CHAINID PUSH24 0x77772E636E6E62726173696C2E636F6D2E62722532467770 0x2D PUSH4 0x6F6E7465 PUSH15 0x7425324675706C6F61647325324673 PUSH10 0x74657325324631322532 CHAINID MSTORE PUSH6 0x75746572735F PREVRANDAO PUSH10 0x726563745F4D65646961 0x25 ORIGIN CHAINID TIMESTAMP PUSH19 0x617A696C4F6E6C696E655265706F7274576F72 PUSH13 0x644E6577732532467461677265 PUSH22 0x746572732E636F6D3230323462696E6172795F4C594E PC 0x4D POP GASLIMIT 0x4B CODESIZE 0x4F ADDRESS BLOBBASEFEE MSTORE8 0x2D CHAINID BLOBHASH 0x4C GASLIMIT PREVRANDAO BLOBHASH 0x4D COINBASE SELFBALANCE GASLIMIT 0x2E PUSH11 0x7067253346772533443432 ADDRESS 0x25 ORIGIN CALLDATASIZE PUSH9 0x253344323430253236 PUSH4 0x726F7025 CALLER PREVRANDAO BALANCE 0x25 ORIGIN CALLDATASIZE PUSH18 0x75616C697479253344383526696D67726566 PUSH22 0x726C3D68747470732533412532462532467777772E63 PUSH15 0x6E62726173696C2E636F6D2E627225 ORIGIN CHAINID PUSH10 0x6E7465726E6163696F6E PUSH2 0x6C25 ORIGIN CHAINID PUSH21 0x72756D702D66616C612D656D2D6578706C6F646972 0x2D PUSH16 0x2D6972612D656D2D6361736F2D64652D PUSH2 0x6D65 PUSH2 0x6361 0x2D PUSH2 0x2D63 PUSH2 0x6E64 PUSH10 0x6461746F2D7072657369 PUSH5 0x656E636961 PUSH13 0x25324626646F6369643D444D5F ADDRESS CHAINID PUSH12 0x7178616E725A454D2674626E PUSH10 0x643D30473176704D4A74 PUSH14 0x525F6C754D267665743D31326168 SSTORE 0x4B GASLIMIT PUSH24 0x6A3533364B373665324941785877714A5543485747314B39 SSTORE MLOAD 0x4D CALLER PUSH16 0x454347555141412E2E6926773D343230 0x26 PUSH9 0x3D323430266863623D ORIGIN 0x26 PUSH10 0x74673D31267665643D32 PUSH2 0x6855 0x4B GASLIMIT PUSH24 0x6A3533364B373665324941785877714A5543485747314B39 SSTORE MLOAD 0x4D CALLER PUSH16 0x4543475551414168747470733A2F2F77 PUSH24 0x772E676F6F676C652E636F6D2F696D677265733F713D6B61 PUSH14 0x616C6126696D6775726C3D687474 PUSH17 0x73253341253246253246662E692E756F6C 0x2E PUSH4 0x6F6D2E62 PUSH19 0x253246666F746F677261666961253246323032 CALLVALUE 0x25 ORIGIN CHAINID ADDRESS CODECOPY 0x25 ORIGIN CHAINID CALLER ADDRESS 0x25 ORIGIN CHAINID BALANCE CALLDATACOPY ORIGIN CALLDATACOPY CALLDATACOPY ORIGIN CODESIZE CODECOPY CALLVALUE ORIGIN CALLDATASIZE CALLDATASIZE PUSH7 0x62306432653363 PUSH5 0x64305F3137 ORIGIN CALLDATACOPY CALLDATACOPY ORIGIN CODESIZE CODECOPY CALLVALUE ORIGIN PUSH0 CALLER PUSH25 0x325F6D642E6A706726696D6772656675726C3D687474707325 CALLER COINBASE 0x25 ORIGIN CHAINID 0x25 ORIGIN CHAINID PUSH24 0x7777312E666F6C68612E756F6C2E636F6D2E62722532466D PUSH22 0x6E646F2532463230323425324630392532466E65772D PUSH26 0x6F726B2D74696D65732D6465636C6172612D766F746F2D656D2D PUSH12 0x616D616C612D686172726973 0x2D PUSH17 0x6172612D707265736964656E74652D646F PUSH20 0x2D6575612E7368746D6C26646F6369643D4F7338 CALLDATACOPY PUSH22 0x7158734D6A5358724D2674626E69643D4C3254313459 JUMP CODESIZE TIMESTAMP CALLDATASIZE PUSH25 0x5A564D267665743D31326168554B45776A6A704A584B366532 BLOBHASH COINBASE PUSH25 0x56507235554348665A644F4445514D336F4543424D5141412E 0x2E PUSH10 0x26773D37363826683D35 BALANCE ORIGIN 0x26 PUSH9 0x63623D32266974673D BALANCE 0x26 PUSH23 0x65643D326168554B45776A6A704A584B36653249417856 POP PUSH19 0x35554348665A644F4445514D336F4543424D51 COINBASE COINBASE "
				},
				"gasEstimates": {
					"creation": {
						"codeDepositCost": "216600",
						"executionCost": "infinite",
						"totalCost": "infinite"
					},
					"external": {
						"dispute()": "infinite"
					}
				},
				"methodIdentifiers": {
					"dispute()": "f240f7c3"
				}
			},
			"storageLayout": {
				"storage": [
					{
						"astId": 19,
						"contract": "contracts/BetCandidate.sol:BetCandidate",
						"label": "dispute",
						"offset": 0,
						"slot": "0",
						"type": "t_struct(Dispute)16_storage"
					},
					{
						"astId": 21,
						"contract": "contracts/BetCandidate.sol:BetCandidate",
						"label": "owner",
						"offset": 0,
						"slot": "7",
						"type": "t_address"
					},
					{
						"astId": 24,
						"contract": "contracts/BetCandidate.sol:BetCandidate",
						"label": "fee",
						"offset": 0,
						"slot": "8",
						"type": "t_uint256"
					}
				],
				"types": {
					"t_address": {
						"encoding": "inplace",
						"label": "address",
						"numberOfBytes": "20"
					},
					"t_string_storage": {
						"encoding": "bytes",
						"label": "string",
						"numberOfBytes": "32"
					},
					"t_struct(Dispute)16_storage": {
						"encoding": "inplace",
						"label": "struct Dispute",
						"members": [
							{
								"astId": 3,
								"contract": "contracts/BetCandidate.sol:BetCandidate",
								"label": "candidate1",
								"offset": 0,
								"slot": "0",
								"type": "t_string_storage"
							},
							{
								"astId": 5,
								"contract": "contracts/BetCandidate.sol:BetCandidate",
								"label": "candidate2",
								"offset": 0,
								"slot": "1",
								"type": "t_string_storage"
							},
							{
								"astId": 7,
								"contract": "contracts/BetCandidate.sol:BetCandidate",
								"label": "image1",
								"offset": 0,
								"slot": "2",
								"type": "t_string_storage"
							},
							{
								"astId": 9,
								"contract": "contracts/BetCandidate.sol:BetCandidate",
								"label": "image2",
								"offset": 0,
								"slot": "3",
								"type": "t_string_storage"
							},
							{
								"astId": 11,
								"contract": "contracts/BetCandidate.sol:BetCandidate",
								"label": "total1",
								"offset": 0,
								"slot": "4",
								"type": "t_uint256"
							},
							{
								"astId": 13,
								"contract": "contracts/BetCandidate.sol:BetCandidate",
								"label": "total2",
								"offset": 0,
								"slot": "5",
								"type": "t_uint256"
							},
							{
								"astId": 15,
								"contract": "contracts/BetCandidate.sol:BetCandidate",
								"label": "winner",
								"offset": 0,
								"slot": "6",
								"type": "t_uint256"
							}
						],
						"numberOfBytes": "224"
					},
					"t_uint256": {
						"encoding": "inplace",
						"label": "uint256",
						"numberOfBytes": "32"
					}
				}
			},
			"userdoc": {
				"kind": "user",
				"methods": {},
				"version": 1
			}
		}
	}
}