{
	"data": {
		"bytecode": {
			"linkReferences": {},
			"object": "60806040526103e8600955348015610015575f80fd5b50600880546001600160a01b031916331790556040805161012081018252600c60e082019081526b0446f6e616c64205472756d760a41b610100830152815281518083018352600d81526c4b616d616c612048617272697360981b602082810191909152808301919091528251808401845260158082527f687474703a2f2f6269742e6c792f337a6d5366694100000000000000000000008284015283850191909152835180850190945283527f687474703a2f2f6269742e6c792f346746346d594f00000000000000000000009083015260608101919091525f6080820181905260a0820181905260c08201819052815181906101139082610210565b50602082015160018201906101289082610210565b506040820151600282019061013d9082610210565b50606082015160038201906101529082610210565b506080820151600482015560a0820151600582015560c0909101516006909101556102ca565b634e487b7160e01b5f52604160045260245ffd5b600181811c908216806101a057607f821691505b6020821081036101be57634e487b7160e01b5f52602260045260245ffd5b50919050565b601f82111561020b57805f5260205f20601f840160051c810160208510156101e95750805b601f840160051c820191505b81811015610208575f81556001016101f5565b50505b505050565b81516001600160401b0381111561022957610229610178565b61023d81610237845461018c565b846101c4565b6020601f82116001811461026f575f83156102585750848201515b5f19600385901b1c1916600184901b178455610208565b5f84815260208120601f198516915b8281101561029e578785015182556020948501946001909201910161027e565b50848210156102bb57868401515f19600387901b60f8161c191681555b50505050600190811b01905550565b61096c806102d75f395ff3fe608060405260043610610054575f3560e01c8063121de3f6146100585780634e71d92d146100805780637365870b1461009657806393bebee8146100a9578063d353a1cb14610109578063f240f7c314610128575b5f80fd5b348015610063575f80fd5b5061006d600a5481565b6040519081526020015b60405180910390f35b34801561008b575f80fd5b5061009461014f565b005b6100946100a43660046107aa565b610291565b3480156100b4575f80fd5b506100e96100c33660046107c1565b60076020525f908152604090208054600182015460028301546003909301549192909184565b604080519485526020850193909352918301526060820152608001610077565b348015610114575f80fd5b506100946101233660046107aa565b610409565b348015610133575f80fd5b5061013c610565565b604051610077979695949392919061081c565b335f908152600760209081526040918290208251608081018452815481526001820154928101929092526002810154928201929092526003909101546060820152600654158015906101a657506020810151600654145b80156101b457506060810151155b6101f55760405162461bcd60e51b815260206004820152600d60248201526c496e76616c696420636c61696d60981b60448201526064015b60405180910390fd5b6006545f906001146102095760055461020d565b6004545b90505f81835f0151612710610222919061089c565b61022c91906108b9565b90505f61271082600a54610240919061089c565b61024a91906108b9565b335f8181526007602052604080822060030184905551929350909183156108fc0291849190818181858888f1935050505015801561028a573d5f803e3d5ffd5b5050505050565b80600114806102a05750806002145b6102e05760405162461bcd60e51b8152602060048201526011602482015270496e76616c69642063616e64696461746560781b60448201526064016101ec565b5f341161031d5760405162461bcd60e51b815260206004820152600b60248201526a125b9d985b1a590818995d60aa1b60448201526064016101ec565b6006541561035e5760405162461bcd60e51b815260206004820152600e60248201526d111a5cdc1d5d194818db1bdcd95960921b60448201526064016101ec565b61038560405180608001604052805f81526020015f81526020015f81526020015f81525090565b3481526020808201838152426040808501918252335f90815260079094529092208351815590516001808301919091559151600282015560608301516003909101558290036103ec57345f6004015f8282546103e191906108d8565b909155506104059050565b345f6005015f8282546103ff91906108d8565b90915550505b5050565b6008546001600160a01b031633146104555760405162461bcd60e51b815260206004820152600f60248201526e125b9d985b1a59081858d8dbdd5b9d608a1b60448201526064016101ec565b80600114806104645750806002145b6104a45760405162461bcd60e51b8152602060048201526011602482015270496e76616c69642063616e64696461746560781b60448201526064016101ec565b600654156104e55760405162461bcd60e51b815260206004820152600e60248201526d111a5cdc1d5d194818db1bdcd95960921b60448201526064016101ec565b60068190556005546004545f916104fb916108d8565b90505f6127106009548361050f919061089c565b61051991906108b9565b905061052581836108eb565b600a556008546040516001600160a01b039091169082156108fc029083905f818181858888f1935050505015801561055f573d5f803e3d5ffd5b50505050565b5f80548190610573906108fe565b80601f016020809104026020016040519081016040528092919081815260200182805461059f906108fe565b80156105ea5780601f106105c1576101008083540402835291602001916105ea565b820191905f5260205f20905b8154815290600101906020018083116105cd57829003601f168201915b5050505050908060010180546105ff906108fe565b80601f016020809104026020016040519081016040528092919081815260200182805461062b906108fe565b80156106765780601f1061064d57610100808354040283529160200191610676565b820191905f5260205f20905b81548152906001019060200180831161065957829003601f168201915b50505050509080600201805461068b906108fe565b80601f01602080910402602001604051908101604052809291908181526020018280546106b7906108fe565b80156107025780601f106106d957610100808354040283529160200191610702565b820191905f5260205f20905b8154815290600101906020018083116106e557829003601f168201915b505050505090806003018054610717906108fe565b80601f0160208091040260200160405190810160405280929190818152602001828054610743906108fe565b801561078e5780601f106107655761010080835404028352916020019161078e565b820191905f5260205f20905b81548152906001019060200180831161077157829003601f168201915b5050505050908060040154908060050154908060060154905087565b5f602082840312156107ba575f80fd5b5035919050565b5f602082840312156107d1575f80fd5b81356001600160a01b03811681146107e7575f80fd5b9392505050565b5f81518084528060208401602086015e5f602082860101526020601f19601f83011685010191505092915050565b60e081525f61082e60e083018a6107ee565b8281036020840152610840818a6107ee565b9050828103604084015261085481896107ee565b9050828103606084015261086881886107ee565b6080840196909652505060a081019290925260c090910152949350505050565b634e487b7160e01b5f52601160045260245ffd5b80820281158282048414176108b3576108b3610888565b92915050565b5f826108d357634e487b7160e01b5f52601260045260245ffd5b500490565b808201808211156108b3576108b3610888565b818103818111156108b3576108b3610888565b600181811c9082168061091257607f821691505b60208210810361093057634e487b7160e01b5f52602260045260245ffd5b5091905056fea2646970667358221220539eaec9f1af8b5f2584392f164d8c345ec5ce931e2e7053143e99a2da86535d64736f6c634300081a0033",
			"opcodes": "PUSH1 0x80 PUSH1 0x40 MSTORE PUSH2 0x3E8 PUSH1 0x9 SSTORE CALLVALUE DUP1 ISZERO PUSH2 0x15 JUMPI PUSH0 DUP1 REVERT JUMPDEST POP PUSH1 0x8 DUP1 SLOAD PUSH1 0x1 PUSH1 0x1 PUSH1 0xA0 SHL SUB NOT AND CALLER OR SWAP1 SSTORE PUSH1 0x40 DUP1 MLOAD PUSH2 0x120 DUP2 ADD DUP3 MSTORE PUSH1 0xC PUSH1 0xE0 DUP3 ADD SWAP1 DUP2 MSTORE PUSH12 0x446F6E616C64205472756D7 PUSH1 0xA4 SHL PUSH2 0x100 DUP4 ADD MSTORE DUP2 MSTORE DUP2 MLOAD DUP1 DUP4 ADD DUP4 MSTORE PUSH1 0xD DUP2 MSTORE PUSH13 0x4B616D616C6120486172726973 PUSH1 0x98 SHL PUSH1 0x20 DUP3 DUP2 ADD SWAP2 SWAP1 SWAP2 MSTORE DUP1 DUP4 ADD SWAP2 SWAP1 SWAP2 MSTORE DUP3 MLOAD DUP1 DUP5 ADD DUP5 MSTORE PUSH1 0x15 DUP1 DUP3 MSTORE PUSH32 0x687474703A2F2F6269742E6C792F337A6D536669410000000000000000000000 DUP3 DUP5 ADD MSTORE DUP4 DUP6 ADD SWAP2 SWAP1 SWAP2 MSTORE DUP4 MLOAD DUP1 DUP6 ADD SWAP1 SWAP5 MSTORE DUP4 MSTORE PUSH32 0x687474703A2F2F6269742E6C792F346746346D594F0000000000000000000000 SWAP1 DUP4 ADD MSTORE PUSH1 0x60 DUP2 ADD SWAP2 SWAP1 SWAP2 MSTORE PUSH0 PUSH1 0x80 DUP3 ADD DUP2 SWAP1 MSTORE PUSH1 0xA0 DUP3 ADD DUP2 SWAP1 MSTORE PUSH1 0xC0 DUP3 ADD DUP2 SWAP1 MSTORE DUP2 MLOAD DUP2 SWAP1 PUSH2 0x113 SWAP1 DUP3 PUSH2 0x210 JUMP JUMPDEST POP PUSH1 0x20 DUP3 ADD MLOAD PUSH1 0x1 DUP3 ADD SWAP1 PUSH2 0x128 SWAP1 DUP3 PUSH2 0x210 JUMP JUMPDEST POP PUSH1 0x40 DUP3 ADD MLOAD PUSH1 0x2 DUP3 ADD SWAP1 PUSH2 0x13D SWAP1 DUP3 PUSH2 0x210 JUMP JUMPDEST POP PUSH1 0x60 DUP3 ADD MLOAD PUSH1 0x3 DUP3 ADD SWAP1 PUSH2 0x152 SWAP1 DUP3 PUSH2 0x210 JUMP JUMPDEST POP PUSH1 0x80 DUP3 ADD MLOAD PUSH1 0x4 DUP3 ADD SSTORE PUSH1 0xA0 DUP3 ADD MLOAD PUSH1 0x5 DUP3 ADD SSTORE PUSH1 0xC0 SWAP1 SWAP2 ADD MLOAD PUSH1 0x6 SWAP1 SWAP2 ADD SSTORE PUSH2 0x2CA JUMP JUMPDEST PUSH4 0x4E487B71 PUSH1 0xE0 SHL PUSH0 MSTORE PUSH1 0x41 PUSH1 0x4 MSTORE PUSH1 0x24 PUSH0 REVERT JUMPDEST PUSH1 0x1 DUP2 DUP2 SHR SWAP1 DUP3 AND DUP1 PUSH2 0x1A0 JUMPI PUSH1 0x7F DUP3 AND SWAP2 POP JUMPDEST PUSH1 0x20 DUP3 LT DUP2 SUB PUSH2 0x1BE JUMPI PUSH4 0x4E487B71 PUSH1 0xE0 SHL PUSH0 MSTORE PUSH1 0x22 PUSH1 0x4 MSTORE PUSH1 0x24 PUSH0 REVERT JUMPDEST POP SWAP2 SWAP1 POP JUMP JUMPDEST PUSH1 0x1F DUP3 GT ISZERO PUSH2 0x20B JUMPI DUP1 PUSH0 MSTORE PUSH1 0x20 PUSH0 KECCAK256 PUSH1 0x1F DUP5 ADD PUSH1 0x5 SHR DUP2 ADD PUSH1 0x20 DUP6 LT ISZERO PUSH2 0x1E9 JUMPI POP DUP1 JUMPDEST PUSH1 0x1F DUP5 ADD PUSH1 0x5 SHR DUP3 ADD SWAP2 POP JUMPDEST DUP2 DUP2 LT ISZERO PUSH2 0x208 JUMPI PUSH0 DUP2 SSTORE PUSH1 0x1 ADD PUSH2 0x1F5 JUMP JUMPDEST POP POP JUMPDEST POP POP POP JUMP JUMPDEST DUP2 MLOAD PUSH1 0x1 PUSH1 0x1 PUSH1 0x40 SHL SUB DUP2 GT ISZERO PUSH2 0x229 JUMPI PUSH2 0x229 PUSH2 0x178 JUMP JUMPDEST PUSH2 0x23D DUP2 PUSH2 0x237 DUP5 SLOAD PUSH2 0x18C JUMP JUMPDEST DUP5 PUSH2 0x1C4 JUMP JUMPDEST PUSH1 0x20 PUSH1 0x1F DUP3 GT PUSH1 0x1 DUP2 EQ PUSH2 0x26F JUMPI PUSH0 DUP4 ISZERO PUSH2 0x258 JUMPI POP DUP5 DUP3 ADD MLOAD JUMPDEST PUSH0 NOT PUSH1 0x3 DUP6 SWAP1 SHL SHR NOT AND PUSH1 0x1 DUP5 SWAP1 SHL OR DUP5 SSTORE PUSH2 0x208 JUMP JUMPDEST PUSH0 DUP5 DUP2 MSTORE PUSH1 0x20 DUP2 KECCAK256 PUSH1 0x1F NOT DUP6 AND SWAP2 JUMPDEST DUP3 DUP2 LT ISZERO PUSH2 0x29E JUMPI DUP8 DUP6 ADD MLOAD DUP3 SSTORE PUSH1 0x20 SWAP5 DUP6 ADD SWAP5 PUSH1 0x1 SWAP1 SWAP3 ADD SWAP2 ADD PUSH2 0x27E JUMP JUMPDEST POP DUP5 DUP3 LT ISZERO PUSH2 0x2BB JUMPI DUP7 DUP5 ADD MLOAD PUSH0 NOT PUSH1 0x3 DUP8 SWAP1 SHL PUSH1 0xF8 AND SHR NOT AND DUP2 SSTORE JUMPDEST POP POP POP POP PUSH1 0x1 SWAP1 DUP2 SHL ADD SWAP1 SSTORE POP JUMP JUMPDEST PUSH2 0x96C DUP1 PUSH2 0x2D7 PUSH0 CODECOPY PUSH0 RETURN INVALID PUSH1 0x80 PUSH1 0x40 MSTORE PUSH1 0x4 CALLDATASIZE LT PUSH2 0x54 JUMPI PUSH0 CALLDATALOAD PUSH1 0xE0 SHR DUP1 PUSH4 0x121DE3F6 EQ PUSH2 0x58 JUMPI DUP1 PUSH4 0x4E71D92D EQ PUSH2 0x80 JUMPI DUP1 PUSH4 0x7365870B EQ PUSH2 0x96 JUMPI DUP1 PUSH4 0x93BEBEE8 EQ PUSH2 0xA9 JUMPI DUP1 PUSH4 0xD353A1CB EQ PUSH2 0x109 JUMPI DUP1 PUSH4 0xF240F7C3 EQ PUSH2 0x128 JUMPI JUMPDEST PUSH0 DUP1 REVERT JUMPDEST CALLVALUE DUP1 ISZERO PUSH2 0x63 JUMPI PUSH0 DUP1 REVERT JUMPDEST POP PUSH2 0x6D PUSH1 0xA SLOAD DUP2 JUMP JUMPDEST PUSH1 0x40 MLOAD SWAP1 DUP2 MSTORE PUSH1 0x20 ADD JUMPDEST PUSH1 0x40 MLOAD DUP1 SWAP2 SUB SWAP1 RETURN JUMPDEST CALLVALUE DUP1 ISZERO PUSH2 0x8B JUMPI PUSH0 DUP1 REVERT JUMPDEST POP PUSH2 0x94 PUSH2 0x14F JUMP JUMPDEST STOP JUMPDEST PUSH2 0x94 PUSH2 0xA4 CALLDATASIZE PUSH1 0x4 PUSH2 0x7AA JUMP JUMPDEST PUSH2 0x291 JUMP JUMPDEST CALLVALUE DUP1 ISZERO PUSH2 0xB4 JUMPI PUSH0 DUP1 REVERT JUMPDEST POP PUSH2 0xE9 PUSH2 0xC3 CALLDATASIZE PUSH1 0x4 PUSH2 0x7C1 JUMP JUMPDEST PUSH1 0x7 PUSH1 0x20 MSTORE PUSH0 SWAP1 DUP2 MSTORE PUSH1 0x40 SWAP1 KECCAK256 DUP1 SLOAD PUSH1 0x1 DUP3 ADD SLOAD PUSH1 0x2 DUP4 ADD SLOAD PUSH1 0x3 SWAP1 SWAP4 ADD SLOAD SWAP2 SWAP3 SWAP1 SWAP2 DUP5 JUMP JUMPDEST PUSH1 0x40 DUP1 MLOAD SWAP5 DUP6 MSTORE PUSH1 0x20 DUP6 ADD SWAP4 SWAP1 SWAP4 MSTORE SWAP2 DUP4 ADD MSTORE PUSH1 0x60 DUP3 ADD MSTORE PUSH1 0x80 ADD PUSH2 0x77 JUMP JUMPDEST CALLVALUE DUP1 ISZERO PUSH2 0x114 JUMPI PUSH0 DUP1 REVERT JUMPDEST POP PUSH2 0x94 PUSH2 0x123 CALLDATASIZE PUSH1 0x4 PUSH2 0x7AA JUMP JUMPDEST PUSH2 0x409 JUMP JUMPDEST CALLVALUE DUP1 ISZERO PUSH2 0x133 JUMPI PUSH0 DUP1 REVERT JUMPDEST POP PUSH2 0x13C PUSH2 0x565 JUMP JUMPDEST PUSH1 0x40 MLOAD PUSH2 0x77 SWAP8 SWAP7 SWAP6 SWAP5 SWAP4 SWAP3 SWAP2 SWAP1 PUSH2 0x81C JUMP JUMPDEST CALLER PUSH0 SWAP1 DUP2 MSTORE PUSH1 0x7 PUSH1 0x20 SWAP1 DUP2 MSTORE PUSH1 0x40 SWAP2 DUP3 SWAP1 KECCAK256 DUP3 MLOAD PUSH1 0x80 DUP2 ADD DUP5 MSTORE DUP2 SLOAD DUP2 MSTORE PUSH1 0x1 DUP3 ADD SLOAD SWAP3 DUP2 ADD SWAP3 SWAP1 SWAP3 MSTORE PUSH1 0x2 DUP2 ADD SLOAD SWAP3 DUP3 ADD SWAP3 SWAP1 SWAP3 MSTORE PUSH1 0x3 SWAP1 SWAP2 ADD SLOAD PUSH1 0x60 DUP3 ADD MSTORE PUSH1 0x6 SLOAD ISZERO DUP1 ISZERO SWAP1 PUSH2 0x1A6 JUMPI POP PUSH1 0x20 DUP2 ADD MLOAD PUSH1 0x6 SLOAD EQ JUMPDEST DUP1 ISZERO PUSH2 0x1B4 JUMPI POP PUSH1 0x60 DUP2 ADD MLOAD ISZERO JUMPDEST PUSH2 0x1F5 JUMPI PUSH1 0x40 MLOAD PUSH3 0x461BCD PUSH1 0xE5 SHL DUP2 MSTORE PUSH1 0x20 PUSH1 0x4 DUP3 ADD MSTORE PUSH1 0xD PUSH1 0x24 DUP3 ADD MSTORE PUSH13 0x496E76616C696420636C61696D PUSH1 0x98 SHL PUSH1 0x44 DUP3 ADD MSTORE PUSH1 0x64 ADD JUMPDEST PUSH1 0x40 MLOAD DUP1 SWAP2 SUB SWAP1 REVERT JUMPDEST PUSH1 0x6 SLOAD PUSH0 SWAP1 PUSH1 0x1 EQ PUSH2 0x209 JUMPI PUSH1 0x5 SLOAD PUSH2 0x20D JUMP JUMPDEST PUSH1 0x4 SLOAD JUMPDEST SWAP1 POP PUSH0 DUP2 DUP4 PUSH0 ADD MLOAD PUSH2 0x2710 PUSH2 0x222 SWAP2 SWAP1 PUSH2 0x89C JUMP JUMPDEST PUSH2 0x22C SWAP2 SWAP1 PUSH2 0x8B9 JUMP JUMPDEST SWAP1 POP PUSH0 PUSH2 0x2710 DUP3 PUSH1 0xA SLOAD PUSH2 0x240 SWAP2 SWAP1 PUSH2 0x89C JUMP JUMPDEST PUSH2 0x24A SWAP2 SWAP1 PUSH2 0x8B9 JUMP JUMPDEST CALLER PUSH0 DUP2 DUP2 MSTORE PUSH1 0x7 PUSH1 0x20 MSTORE PUSH1 0x40 DUP1 DUP3 KECCAK256 PUSH1 0x3 ADD DUP5 SWAP1 SSTORE MLOAD SWAP3 SWAP4 POP SWAP1 SWAP2 DUP4 ISZERO PUSH2 0x8FC MUL SWAP2 DUP5 SWAP2 SWAP1 DUP2 DUP2 DUP2 DUP6 DUP9 DUP9 CALL SWAP4 POP POP POP POP ISZERO DUP1 ISZERO PUSH2 0x28A JUMPI RETURNDATASIZE PUSH0 DUP1 RETURNDATACOPY RETURNDATASIZE PUSH0 REVERT JUMPDEST POP POP POP POP POP JUMP JUMPDEST DUP1 PUSH1 0x1 EQ DUP1 PUSH2 0x2A0 JUMPI POP DUP1 PUSH1 0x2 EQ JUMPDEST PUSH2 0x2E0 JUMPI PUSH1 0x40 MLOAD PUSH3 0x461BCD PUSH1 0xE5 SHL DUP2 MSTORE PUSH1 0x20 PUSH1 0x4 DUP3 ADD MSTORE PUSH1 0x11 PUSH1 0x24 DUP3 ADD MSTORE PUSH17 0x496E76616C69642063616E646964617465 PUSH1 0x78 SHL PUSH1 0x44 DUP3 ADD MSTORE PUSH1 0x64 ADD PUSH2 0x1EC JUMP JUMPDEST PUSH0 CALLVALUE GT PUSH2 0x31D JUMPI PUSH1 0x40 MLOAD PUSH3 0x461BCD PUSH1 0xE5 SHL DUP2 MSTORE PUSH1 0x20 PUSH1 0x4 DUP3 ADD MSTORE PUSH1 0xB PUSH1 0x24 DUP3 ADD MSTORE PUSH11 0x125B9D985B1A590818995D PUSH1 0xAA SHL PUSH1 0x44 DUP3 ADD MSTORE PUSH1 0x64 ADD PUSH2 0x1EC JUMP JUMPDEST PUSH1 0x6 SLOAD ISZERO PUSH2 0x35E JUMPI PUSH1 0x40 MLOAD PUSH3 0x461BCD PUSH1 0xE5 SHL DUP2 MSTORE PUSH1 0x20 PUSH1 0x4 DUP3 ADD MSTORE PUSH1 0xE PUSH1 0x24 DUP3 ADD MSTORE PUSH14 0x111A5CDC1D5D194818DB1BDCD959 PUSH1 0x92 SHL PUSH1 0x44 DUP3 ADD MSTORE PUSH1 0x64 ADD PUSH2 0x1EC JUMP JUMPDEST PUSH2 0x385 PUSH1 0x40 MLOAD DUP1 PUSH1 0x80 ADD PUSH1 0x40 MSTORE DUP1 PUSH0 DUP2 MSTORE PUSH1 0x20 ADD PUSH0 DUP2 MSTORE PUSH1 0x20 ADD PUSH0 DUP2 MSTORE PUSH1 0x20 ADD PUSH0 DUP2 MSTORE POP SWAP1 JUMP JUMPDEST CALLVALUE DUP2 MSTORE PUSH1 0x20 DUP1 DUP3 ADD DUP4 DUP2 MSTORE TIMESTAMP PUSH1 0x40 DUP1 DUP6 ADD SWAP2 DUP3 MSTORE CALLER PUSH0 SWAP1 DUP2 MSTORE PUSH1 0x7 SWAP1 SWAP5 MSTORE SWAP1 SWAP3 KECCAK256 DUP4 MLOAD DUP2 SSTORE SWAP1 MLOAD PUSH1 0x1 DUP1 DUP4 ADD SWAP2 SWAP1 SWAP2 SSTORE SWAP2 MLOAD PUSH1 0x2 DUP3 ADD SSTORE PUSH1 0x60 DUP4 ADD MLOAD PUSH1 0x3 SWAP1 SWAP2 ADD SSTORE DUP3 SWAP1 SUB PUSH2 0x3EC JUMPI CALLVALUE PUSH0 PUSH1 0x4 ADD PUSH0 DUP3 DUP3 SLOAD PUSH2 0x3E1 SWAP2 SWAP1 PUSH2 0x8D8 JUMP JUMPDEST SWAP1 SWAP2 SSTORE POP PUSH2 0x405 SWAP1 POP JUMP JUMPDEST CALLVALUE PUSH0 PUSH1 0x5 ADD PUSH0 DUP3 DUP3 SLOAD PUSH2 0x3FF SWAP2 SWAP1 PUSH2 0x8D8 JUMP JUMPDEST SWAP1 SWAP2 SSTORE POP POP JUMPDEST POP POP JUMP JUMPDEST PUSH1 0x8 SLOAD PUSH1 0x1 PUSH1 0x1 PUSH1 0xA0 SHL SUB AND CALLER EQ PUSH2 0x455 JUMPI PUSH1 0x40 MLOAD PUSH3 0x461BCD PUSH1 0xE5 SHL DUP2 MSTORE PUSH1 0x20 PUSH1 0x4 DUP3 ADD MSTORE PUSH1 0xF PUSH1 0x24 DUP3 ADD MSTORE PUSH15 0x125B9D985B1A59081858D8DBDD5B9D PUSH1 0x8A SHL PUSH1 0x44 DUP3 ADD MSTORE PUSH1 0x64 ADD PUSH2 0x1EC JUMP JUMPDEST DUP1 PUSH1 0x1 EQ DUP1 PUSH2 0x464 JUMPI POP DUP1 PUSH1 0x2 EQ JUMPDEST PUSH2 0x4A4 JUMPI PUSH1 0x40 MLOAD PUSH3 0x461BCD PUSH1 0xE5 SHL DUP2 MSTORE PUSH1 0x20 PUSH1 0x4 DUP3 ADD MSTORE PUSH1 0x11 PUSH1 0x24 DUP3 ADD MSTORE PUSH17 0x496E76616C69642063616E646964617465 PUSH1 0x78 SHL PUSH1 0x44 DUP3 ADD MSTORE PUSH1 0x64 ADD PUSH2 0x1EC JUMP JUMPDEST PUSH1 0x6 SLOAD ISZERO PUSH2 0x4E5 JUMPI PUSH1 0x40 MLOAD PUSH3 0x461BCD PUSH1 0xE5 SHL DUP2 MSTORE PUSH1 0x20 PUSH1 0x4 DUP3 ADD MSTORE PUSH1 0xE PUSH1 0x24 DUP3 ADD MSTORE PUSH14 0x111A5CDC1D5D194818DB1BDCD959 PUSH1 0x92 SHL PUSH1 0x44 DUP3 ADD MSTORE PUSH1 0x64 ADD PUSH2 0x1EC JUMP JUMPDEST PUSH1 0x6 DUP2 SWAP1 SSTORE PUSH1 0x5 SLOAD PUSH1 0x4 SLOAD PUSH0 SWAP2 PUSH2 0x4FB SWAP2 PUSH2 0x8D8 JUMP JUMPDEST SWAP1 POP PUSH0 PUSH2 0x2710 PUSH1 0x9 SLOAD DUP4 PUSH2 0x50F SWAP2 SWAP1 PUSH2 0x89C JUMP JUMPDEST PUSH2 0x519 SWAP2 SWAP1 PUSH2 0x8B9 JUMP JUMPDEST SWAP1 POP PUSH2 0x525 DUP2 DUP4 PUSH2 0x8EB JUMP JUMPDEST PUSH1 0xA SSTORE PUSH1 0x8 SLOAD PUSH1 0x40 MLOAD PUSH1 0x1 PUSH1 0x1 PUSH1 0xA0 SHL SUB SWAP1 SWAP2 AND SWAP1 DUP3 ISZERO PUSH2 0x8FC MUL SWAP1 DUP4 SWAP1 PUSH0 DUP2 DUP2 DUP2 DUP6 DUP9 DUP9 CALL SWAP4 POP POP POP POP ISZERO DUP1 ISZERO PUSH2 0x55F JUMPI RETURNDATASIZE PUSH0 DUP1 RETURNDATACOPY RETURNDATASIZE PUSH0 REVERT JUMPDEST POP POP POP POP JUMP JUMPDEST PUSH0 DUP1 SLOAD DUP2 SWAP1 PUSH2 0x573 SWAP1 PUSH2 0x8FE JUMP JUMPDEST DUP1 PUSH1 0x1F ADD PUSH1 0x20 DUP1 SWAP2 DIV MUL PUSH1 0x20 ADD PUSH1 0x40 MLOAD SWAP1 DUP2 ADD PUSH1 0x40 MSTORE DUP1 SWAP3 SWAP2 SWAP1 DUP2 DUP2 MSTORE PUSH1 0x20 ADD DUP3 DUP1 SLOAD PUSH2 0x59F SWAP1 PUSH2 0x8FE JUMP JUMPDEST DUP1 ISZERO PUSH2 0x5EA JUMPI DUP1 PUSH1 0x1F LT PUSH2 0x5C1 JUMPI PUSH2 0x100 DUP1 DUP4 SLOAD DIV MUL DUP4 MSTORE SWAP2 PUSH1 0x20 ADD SWAP2 PUSH2 0x5EA JUMP JUMPDEST DUP3 ADD SWAP2 SWAP1 PUSH0 MSTORE PUSH1 0x20 PUSH0 KECCAK256 SWAP1 JUMPDEST DUP2 SLOAD DUP2 MSTORE SWAP1 PUSH1 0x1 ADD SWAP1 PUSH1 0x20 ADD DUP1 DUP4 GT PUSH2 0x5CD JUMPI DUP3 SWAP1 SUB PUSH1 0x1F AND DUP3 ADD SWAP2 JUMPDEST POP POP POP POP POP SWAP1 DUP1 PUSH1 0x1 ADD DUP1 SLOAD PUSH2 0x5FF SWAP1 PUSH2 0x8FE JUMP JUMPDEST DUP1 PUSH1 0x1F ADD PUSH1 0x20 DUP1 SWAP2 DIV MUL PUSH1 0x20 ADD PUSH1 0x40 MLOAD SWAP1 DUP2 ADD PUSH1 0x40 MSTORE DUP1 SWAP3 SWAP2 SWAP1 DUP2 DUP2 MSTORE PUSH1 0x20 ADD DUP3 DUP1 SLOAD PUSH2 0x62B SWAP1 PUSH2 0x8FE JUMP JUMPDEST DUP1 ISZERO PUSH2 0x676 JUMPI DUP1 PUSH1 0x1F LT PUSH2 0x64D JUMPI PUSH2 0x100 DUP1 DUP4 SLOAD DIV MUL DUP4 MSTORE SWAP2 PUSH1 0x20 ADD SWAP2 PUSH2 0x676 JUMP JUMPDEST DUP3 ADD SWAP2 SWAP1 PUSH0 MSTORE PUSH1 0x20 PUSH0 KECCAK256 SWAP1 JUMPDEST DUP2 SLOAD DUP2 MSTORE SWAP1 PUSH1 0x1 ADD SWAP1 PUSH1 0x20 ADD DUP1 DUP4 GT PUSH2 0x659 JUMPI DUP3 SWAP1 SUB PUSH1 0x1F AND DUP3 ADD SWAP2 JUMPDEST POP POP POP POP POP SWAP1 DUP1 PUSH1 0x2 ADD DUP1 SLOAD PUSH2 0x68B SWAP1 PUSH2 0x8FE JUMP JUMPDEST DUP1 PUSH1 0x1F ADD PUSH1 0x20 DUP1 SWAP2 DIV MUL PUSH1 0x20 ADD PUSH1 0x40 MLOAD SWAP1 DUP2 ADD PUSH1 0x40 MSTORE DUP1 SWAP3 SWAP2 SWAP1 DUP2 DUP2 MSTORE PUSH1 0x20 ADD DUP3 DUP1 SLOAD PUSH2 0x6B7 SWAP1 PUSH2 0x8FE JUMP JUMPDEST DUP1 ISZERO PUSH2 0x702 JUMPI DUP1 PUSH1 0x1F LT PUSH2 0x6D9 JUMPI PUSH2 0x100 DUP1 DUP4 SLOAD DIV MUL DUP4 MSTORE SWAP2 PUSH1 0x20 ADD SWAP2 PUSH2 0x702 JUMP JUMPDEST DUP3 ADD SWAP2 SWAP1 PUSH0 MSTORE PUSH1 0x20 PUSH0 KECCAK256 SWAP1 JUMPDEST DUP2 SLOAD DUP2 MSTORE SWAP1 PUSH1 0x1 ADD SWAP1 PUSH1 0x20 ADD DUP1 DUP4 GT PUSH2 0x6E5 JUMPI DUP3 SWAP1 SUB PUSH1 0x1F AND DUP3 ADD SWAP2 JUMPDEST POP POP POP POP POP SWAP1 DUP1 PUSH1 0x3 ADD DUP1 SLOAD PUSH2 0x717 SWAP1 PUSH2 0x8FE JUMP JUMPDEST DUP1 PUSH1 0x1F ADD PUSH1 0x20 DUP1 SWAP2 DIV MUL PUSH1 0x20 ADD PUSH1 0x40 MLOAD SWAP1 DUP2 ADD PUSH1 0x40 MSTORE DUP1 SWAP3 SWAP2 SWAP1 DUP2 DUP2 MSTORE PUSH1 0x20 ADD DUP3 DUP1 SLOAD PUSH2 0x743 SWAP1 PUSH2 0x8FE JUMP JUMPDEST DUP1 ISZERO PUSH2 0x78E JUMPI DUP1 PUSH1 0x1F LT PUSH2 0x765 JUMPI PUSH2 0x100 DUP1 DUP4 SLOAD DIV MUL DUP4 MSTORE SWAP2 PUSH1 0x20 ADD SWAP2 PUSH2 0x78E JUMP JUMPDEST DUP3 ADD SWAP2 SWAP1 PUSH0 MSTORE PUSH1 0x20 PUSH0 KECCAK256 SWAP1 JUMPDEST DUP2 SLOAD DUP2 MSTORE SWAP1 PUSH1 0x1 ADD SWAP1 PUSH1 0x20 ADD DUP1 DUP4 GT PUSH2 0x771 JUMPI DUP3 SWAP1 SUB PUSH1 0x1F AND DUP3 ADD SWAP2 JUMPDEST POP POP POP POP POP SWAP1 DUP1 PUSH1 0x4 ADD SLOAD SWAP1 DUP1 PUSH1 0x5 ADD SLOAD SWAP1 DUP1 PUSH1 0x6 ADD SLOAD SWAP1 POP DUP8 JUMP JUMPDEST PUSH0 PUSH1 0x20 DUP3 DUP5 SUB SLT ISZERO PUSH2 0x7BA JUMPI PUSH0 DUP1 REVERT JUMPDEST POP CALLDATALOAD SWAP2 SWAP1 POP JUMP JUMPDEST PUSH0 PUSH1 0x20 DUP3 DUP5 SUB SLT ISZERO PUSH2 0x7D1 JUMPI PUSH0 DUP1 REVERT JUMPDEST DUP2 CALLDATALOAD PUSH1 0x1 PUSH1 0x1 PUSH1 0xA0 SHL SUB DUP2 AND DUP2 EQ PUSH2 0x7E7 JUMPI PUSH0 DUP1 REVERT JUMPDEST SWAP4 SWAP3 POP POP POP JUMP JUMPDEST PUSH0 DUP2 MLOAD DUP1 DUP5 MSTORE DUP1 PUSH1 0x20 DUP5 ADD PUSH1 0x20 DUP7 ADD MCOPY PUSH0 PUSH1 0x20 DUP3 DUP7 ADD ADD MSTORE PUSH1 0x20 PUSH1 0x1F NOT PUSH1 0x1F DUP4 ADD AND DUP6 ADD ADD SWAP2 POP POP SWAP3 SWAP2 POP POP JUMP JUMPDEST PUSH1 0xE0 DUP2 MSTORE PUSH0 PUSH2 0x82E PUSH1 0xE0 DUP4 ADD DUP11 PUSH2 0x7EE JUMP JUMPDEST DUP3 DUP2 SUB PUSH1 0x20 DUP5 ADD MSTORE PUSH2 0x840 DUP2 DUP11 PUSH2 0x7EE JUMP JUMPDEST SWAP1 POP DUP3 DUP2 SUB PUSH1 0x40 DUP5 ADD MSTORE PUSH2 0x854 DUP2 DUP10 PUSH2 0x7EE JUMP JUMPDEST SWAP1 POP DUP3 DUP2 SUB PUSH1 0x60 DUP5 ADD MSTORE PUSH2 0x868 DUP2 DUP9 PUSH2 0x7EE JUMP JUMPDEST PUSH1 0x80 DUP5 ADD SWAP7 SWAP1 SWAP7 MSTORE POP POP PUSH1 0xA0 DUP2 ADD SWAP3 SWAP1 SWAP3 MSTORE PUSH1 0xC0 SWAP1 SWAP2 ADD MSTORE SWAP5 SWAP4 POP POP POP POP JUMP JUMPDEST PUSH4 0x4E487B71 PUSH1 0xE0 SHL PUSH0 MSTORE PUSH1 0x11 PUSH1 0x4 MSTORE PUSH1 0x24 PUSH0 REVERT JUMPDEST DUP1 DUP3 MUL DUP2 ISZERO DUP3 DUP3 DIV DUP5 EQ OR PUSH2 0x8B3 JUMPI PUSH2 0x8B3 PUSH2 0x888 JUMP JUMPDEST SWAP3 SWAP2 POP POP JUMP JUMPDEST PUSH0 DUP3 PUSH2 0x8D3 JUMPI PUSH4 0x4E487B71 PUSH1 0xE0 SHL PUSH0 MSTORE PUSH1 0x12 PUSH1 0x4 MSTORE PUSH1 0x24 PUSH0 REVERT JUMPDEST POP DIV SWAP1 JUMP JUMPDEST DUP1 DUP3 ADD DUP1 DUP3 GT ISZERO PUSH2 0x8B3 JUMPI PUSH2 0x8B3 PUSH2 0x888 JUMP JUMPDEST DUP2 DUP2 SUB DUP2 DUP2 GT ISZERO PUSH2 0x8B3 JUMPI PUSH2 0x8B3 PUSH2 0x888 JUMP JUMPDEST PUSH1 0x1 DUP2 DUP2 SHR SWAP1 DUP3 AND DUP1 PUSH2 0x912 JUMPI PUSH1 0x7F DUP3 AND SWAP2 POP JUMPDEST PUSH1 0x20 DUP3 LT DUP2 SUB PUSH2 0x930 JUMPI PUSH4 0x4E487B71 PUSH1 0xE0 SHL PUSH0 MSTORE PUSH1 0x22 PUSH1 0x4 MSTORE PUSH1 0x24 PUSH0 REVERT JUMPDEST POP SWAP2 SWAP1 POP JUMP INVALID LOG2 PUSH5 0x6970667358 0x22 SLT KECCAK256 MSTORE8 SWAP15 0xAE 0xC9 CALL 0xAF DUP12 PUSH0 0x25 DUP5 CODECOPY 0x2F AND 0x4D DUP13 CALLVALUE MCOPY 0xC5 0xCE SWAP4 0x1E 0x2E PUSH17 0x53143E99A2DA86535D64736F6C63430008 BYTE STOP CALLER "
		},
		"gasEstimates": {
			"creation": {
				"codeDepositCost": "482400",
				"executionCost": "infinite",
				"totalCost": "infinite"
			},
			"external": {
				"allBets(address)": "8927",
				"bet(uint256)": "98359",
				"claim()": "infinite",
				"dispute()": "infinite",
				"finish(uint256)": "infinite",
				"netPrize()": "2261"
			}
		},
		"methodIdentifiers": {
			"allBets(address)": "93bebee8",
			"bet(uint256)": "7365870b",
			"claim()": "4e71d92d",
			"dispute()": "f240f7c3",
			"finish(uint256)": "d353a1cb",
			"netPrize()": "121de3f6"
		}
	},
	"abi": [
		{
			"inputs": [],
			"stateMutability": "nonpayable",
			"type": "constructor"
		},
		{
			"inputs": [
				{
					"internalType": "address",
					"name": "",
					"type": "address"
				}
			],
			"name": "allBets",
			"outputs": [
				{
					"internalType": "uint256",
					"name": "ammount",
					"type": "uint256"
				},
				{
					"internalType": "uint256",
					"name": "candidate",
					"type": "uint256"
				},
				{
					"internalType": "uint256",
					"name": "timestamp",
					"type": "uint256"
				},
				{
					"internalType": "uint256",
					"name": "claimed",
					"type": "uint256"
				}
			],
			"stateMutability": "view",
			"type": "function"
		},
		{
			"inputs": [
				{
					"internalType": "uint256",
					"name": "candidate",
					"type": "uint256"
				}
			],
			"name": "bet",
			"outputs": [],
			"stateMutability": "payable",
			"type": "function"
		},
		{
			"inputs": [],
			"name": "claim",
			"outputs": [],
			"stateMutability": "nonpayable",
			"type": "function"
		},
		{
			"inputs": [],
			"name": "dispute",
			"outputs": [
				{
					"internalType": "string",
					"name": "candidate1",
					"type": "string"
				},
				{
					"internalType": "string",
					"name": "candidate2",
					"type": "string"
				},
				{
					"internalType": "string",
					"name": "image1",
					"type": "string"
				},
				{
					"internalType": "string",
					"name": "image2",
					"type": "string"
				},
				{
					"internalType": "uint256",
					"name": "total1",
					"type": "uint256"
				},
				{
					"internalType": "uint256",
					"name": "total2",
					"type": "uint256"
				},
				{
					"internalType": "uint256",
					"name": "winner",
					"type": "uint256"
				}
			],
			"stateMutability": "view",
			"type": "function"
		},
		{
			"inputs": [
				{
					"internalType": "uint256",
					"name": "winner",
					"type": "uint256"
				}
			],
			"name": "finish",
			"outputs": [],
			"stateMutability": "nonpayable",
			"type": "function"
		},
		{
			"inputs": [],
			"name": "netPrize",
			"outputs": [
				{
					"internalType": "uint256",
					"name": "",
					"type": "uint256"
				}
			],
			"stateMutability": "view",
			"type": "function"
		}
	]
}